{
  "_format": "hh-sol-artifact-1",
  "contractName": "DAOToken",
  "sourceName": "contracts/DAOToken.sol",
  "abi": [
    {
      "inputs": [
        {
          "internalType": "address",
          "name": "initialOwner",
          "type": "address"
        }
      ],
      "stateMutability": "nonpayable",
      "type": "constructor"
    },
    {
      "inputs": [],
      "name": "CheckpointUnorderedInsertion",
      "type": "error"
    },
    {
      "inputs": [],
      "name": "ECDSAInvalidSignature",
      "type": "error"
    },
    {
      "inputs": [
        {
          "internalType": "uint256",
          "name": "length",
          "type": "uint256"
        }
      ],
      "name": "ECDSAInvalidSignatureLength",
      "type": "error"
    },
    {
      "inputs": [
        {
          "internalType": "bytes32",
          "name": "s",
          "type": "bytes32"
        }
      ],
      "name": "ECDSAInvalidSignatureS",
      "type": "error"
    },
    {
      "inputs": [
        {
          "internalType": "address",
          "name": "spender",
          "type": "address"
        },
        {
          "internalType": "uint256",
          "name": "value",
          "type": "uint256"
        }
      ],
      "name": "ERC1363ApproveFailed",
      "type": "error"
    },
    {
      "inputs": [
        {
          "internalType": "address",
          "name": "receiver",
          "type": "address"
        }
      ],
      "name": "ERC1363InvalidReceiver",
      "type": "error"
    },
    {
      "inputs": [
        {
          "internalType": "address",
          "name": "spender",
          "type": "address"
        }
      ],
      "name": "ERC1363InvalidSpender",
      "type": "error"
    },
    {
      "inputs": [
        {
          "internalType": "address",
          "name": "receiver",
          "type": "address"
        },
        {
          "internalType": "uint256",
          "name": "value",
          "type": "uint256"
        }
      ],
      "name": "ERC1363TransferFailed",
      "type": "error"
    },
    {
      "inputs": [
        {
          "internalType": "address",
          "name": "sender",
          "type": "address"
        },
        {
          "internalType": "address",
          "name": "receiver",
          "type": "address"
        },
        {
          "internalType": "uint256",
          "name": "value",
          "type": "uint256"
        }
      ],
      "name": "ERC1363TransferFromFailed",
      "type": "error"
    },
    {
      "inputs": [
        {
          "internalType": "uint256",
          "name": "increasedSupply",
          "type": "uint256"
        },
        {
          "internalType": "uint256",
          "name": "cap",
          "type": "uint256"
        }
      ],
      "name": "ERC20ExceededSafeSupply",
      "type": "error"
    },
    {
      "inputs": [
        {
          "internalType": "address",
          "name": "spender",
          "type": "address"
        },
        {
          "internalType": "uint256",
          "name": "allowance",
          "type": "uint256"
        },
        {
          "internalType": "uint256",
          "name": "needed",
          "type": "uint256"
        }
      ],
      "name": "ERC20InsufficientAllowance",
      "type": "error"
    },
    {
      "inputs": [
        {
          "internalType": "address",
          "name": "sender",
          "type": "address"
        },
        {
          "internalType": "uint256",
          "name": "balance",
          "type": "uint256"
        },
        {
          "internalType": "uint256",
          "name": "needed",
          "type": "uint256"
        }
      ],
      "name": "ERC20InsufficientBalance",
      "type": "error"
    },
    {
      "inputs": [
        {
          "internalType": "address",
          "name": "approver",
          "type": "address"
        }
      ],
      "name": "ERC20InvalidApprover",
      "type": "error"
    },
    {
      "inputs": [
        {
          "internalType": "address",
          "name": "receiver",
          "type": "address"
        }
      ],
      "name": "ERC20InvalidReceiver",
      "type": "error"
    },
    {
      "inputs": [
        {
          "internalType": "address",
          "name": "sender",
          "type": "address"
        }
      ],
      "name": "ERC20InvalidSender",
      "type": "error"
    },
    {
      "inputs": [
        {
          "internalType": "address",
          "name": "spender",
          "type": "address"
        }
      ],
      "name": "ERC20InvalidSpender",
      "type": "error"
    },
    {
      "inputs": [
        {
          "internalType": "uint256",
          "name": "deadline",
          "type": "uint256"
        }
      ],
      "name": "ERC2612ExpiredSignature",
      "type": "error"
    },
    {
      "inputs": [
        {
          "internalType": "address",
          "name": "signer",
          "type": "address"
        },
        {
          "internalType": "address",
          "name": "owner",
          "type": "address"
        }
      ],
      "name": "ERC2612InvalidSigner",
      "type": "error"
    },
    {
      "inputs": [
        {
          "internalType": "uint256",
          "name": "timepoint",
          "type": "uint256"
        },
        {
          "internalType": "uint48",
          "name": "clock",
          "type": "uint48"
        }
      ],
      "name": "ERC5805FutureLookup",
      "type": "error"
    },
    {
      "inputs": [],
      "name": "ERC6372InconsistentClock",
      "type": "error"
    },
    {
      "inputs": [],
      "name": "EnforcedPause",
      "type": "error"
    },
    {
      "inputs": [],
      "name": "ExpectedPause",
      "type": "error"
    },
    {
      "inputs": [
        {
          "internalType": "address",
          "name": "account",
          "type": "address"
        },
        {
          "internalType": "uint256",
          "name": "currentNonce",
          "type": "uint256"
        }
      ],
      "name": "InvalidAccountNonce",
      "type": "error"
    },
    {
      "inputs": [],
      "name": "InvalidShortString",
      "type": "error"
    },
    {
      "inputs": [
        {
          "internalType": "address",
          "name": "owner",
          "type": "address"
        }
      ],
      "name": "OwnableInvalidOwner",
      "type": "error"
    },
    {
      "inputs": [
        {
          "internalType": "address",
          "name": "account",
          "type": "address"
        }
      ],
      "name": "OwnableUnauthorizedAccount",
      "type": "error"
    },
    {
      "inputs": [
        {
          "internalType": "uint8",
          "name": "bits",
          "type": "uint8"
        },
        {
          "internalType": "uint256",
          "name": "value",
          "type": "uint256"
        }
      ],
      "name": "SafeCastOverflowedUintDowncast",
      "type": "error"
    },
    {
      "inputs": [
        {
          "internalType": "string",
          "name": "str",
          "type": "string"
        }
      ],
      "name": "StringTooLong",
      "type": "error"
    },
    {
      "inputs": [
        {
          "internalType": "uint256",
          "name": "expiry",
          "type": "uint256"
        }
      ],
      "name": "VotesExpiredSignature",
      "type": "error"
    },
    {
      "anonymous": false,
      "inputs": [
        {
          "indexed": true,
          "internalType": "address",
          "name": "owner",
          "type": "address"
        },
        {
          "indexed": true,
          "internalType": "address",
          "name": "spender",
          "type": "address"
        },
        {
          "indexed": false,
          "internalType": "uint256",
          "name": "value",
          "type": "uint256"
        }
      ],
      "name": "Approval",
      "type": "event"
    },
    {
      "anonymous": false,
      "inputs": [
        {
          "indexed": true,
          "internalType": "address",
          "name": "delegator",
          "type": "address"
        },
        {
          "indexed": true,
          "internalType": "address",
          "name": "fromDelegate",
          "type": "address"
        },
        {
          "indexed": true,
          "internalType": "address",
          "name": "toDelegate",
          "type": "address"
        }
      ],
      "name": "DelegateChanged",
      "type": "event"
    },
    {
      "anonymous": false,
      "inputs": [
        {
          "indexed": true,
          "internalType": "address",
          "name": "delegate",
          "type": "address"
        },
        {
          "indexed": false,
          "internalType": "uint256",
          "name": "previousVotes",
          "type": "uint256"
        },
        {
          "indexed": false,
          "internalType": "uint256",
          "name": "newVotes",
          "type": "uint256"
        }
      ],
      "name": "DelegateVotesChanged",
      "type": "event"
    },
    {
      "anonymous": false,
      "inputs": [],
      "name": "EIP712DomainChanged",
      "type": "event"
    },
    {
      "anonymous": false,
      "inputs": [
        {
          "indexed": true,
          "internalType": "address",
          "name": "previousOwner",
          "type": "address"
        },
        {
          "indexed": true,
          "internalType": "address",
          "name": "newOwner",
          "type": "address"
        }
      ],
      "name": "OwnershipTransferred",
      "type": "event"
    },
    {
      "anonymous": false,
      "inputs": [
        {
          "indexed": false,
          "internalType": "address",
          "name": "account",
          "type": "address"
        }
      ],
      "name": "Paused",
      "type": "event"
    },
    {
      "anonymous": false,
      "inputs": [
        {
          "indexed": true,
          "internalType": "address",
          "name": "from",
          "type": "address"
        },
        {
          "indexed": true,
          "internalType": "address",
          "name": "to",
          "type": "address"
        },
        {
          "indexed": false,
          "internalType": "uint256",
          "name": "value",
          "type": "uint256"
        }
      ],
      "name": "Transfer",
      "type": "event"
    },
    {
      "anonymous": false,
      "inputs": [
        {
          "indexed": false,
          "internalType": "address",
          "name": "account",
          "type": "address"
        }
      ],
      "name": "Unpaused",
      "type": "event"
    },
    {
      "inputs": [],
      "name": "CLOCK_MODE",
      "outputs": [
        {
          "internalType": "string",
          "name": "",
          "type": "string"
        }
      ],
      "stateMutability": "pure",
      "type": "function"
    },
    {
      "inputs": [],
      "name": "DOMAIN_SEPARATOR",
      "outputs": [
        {
          "internalType": "bytes32",
          "name": "",
          "type": "bytes32"
        }
      ],
      "stateMutability": "view",
      "type": "function"
    },
    {
      "inputs": [
        {
          "internalType": "address",
          "name": "owner",
          "type": "address"
        },
        {
          "internalType": "address",
          "name": "spender",
          "type": "address"
        }
      ],
      "name": "allowance",
      "outputs": [
        {
          "internalType": "uint256",
          "name": "",
          "type": "uint256"
        }
      ],
      "stateMutability": "view",
      "type": "function"
    },
    {
      "inputs": [
        {
          "internalType": "address",
          "name": "spender",
          "type": "address"
        },
        {
          "internalType": "uint256",
          "name": "value",
          "type": "uint256"
        }
      ],
      "name": "approve",
      "outputs": [
        {
          "internalType": "bool",
          "name": "",
          "type": "bool"
        }
      ],
      "stateMutability": "nonpayable",
      "type": "function"
    },
    {
      "inputs": [
        {
          "internalType": "address",
          "name": "spender",
          "type": "address"
        },
        {
          "internalType": "uint256",
          "name": "value",
          "type": "uint256"
        }
      ],
      "name": "approveAndCall",
      "outputs": [
        {
          "internalType": "bool",
          "name": "",
          "type": "bool"
        }
      ],
      "stateMutability": "nonpayable",
      "type": "function"
    },
    {
      "inputs": [
        {
          "internalType": "address",
          "name": "spender",
          "type": "address"
        },
        {
          "internalType": "uint256",
          "name": "value",
          "type": "uint256"
        },
        {
          "internalType": "bytes",
          "name": "data",
          "type": "bytes"
        }
      ],
      "name": "approveAndCall",
      "outputs": [
        {
          "internalType": "bool",
          "name": "",
          "type": "bool"
        }
      ],
      "stateMutability": "nonpayable",
      "type": "function"
    },
    {
      "inputs": [
        {
          "internalType": "address",
          "name": "account",
          "type": "address"
        }
      ],
      "name": "balanceOf",
      "outputs": [
        {
          "internalType": "uint256",
          "name": "",
          "type": "uint256"
        }
      ],
      "stateMutability": "view",
      "type": "function"
    },
    {
      "inputs": [
        {
          "internalType": "uint256",
          "name": "value",
          "type": "uint256"
        }
      ],
      "name": "burn",
      "outputs": [],
      "stateMutability": "nonpayable",
      "type": "function"
    },
    {
      "inputs": [
        {
          "internalType": "address",
          "name": "account",
          "type": "address"
        },
        {
          "internalType": "uint256",
          "name": "value",
          "type": "uint256"
        }
      ],
      "name": "burnFrom",
      "outputs": [],
      "stateMutability": "nonpayable",
      "type": "function"
    },
    {
      "inputs": [
        {
          "internalType": "address",
          "name": "account",
          "type": "address"
        },
        {
          "internalType": "uint32",
          "name": "pos",
          "type": "uint32"
        }
      ],
      "name": "checkpoints",
      "outputs": [
        {
          "components": [
            {
              "internalType": "uint48",
              "name": "_key",
              "type": "uint48"
            },
            {
              "internalType": "uint208",
              "name": "_value",
              "type": "uint208"
            }
          ],
          "internalType": "struct Checkpoints.Checkpoint208",
          "name": "",
          "type": "tuple"
        }
      ],
      "stateMutability": "view",
      "type": "function"
    },
    {
      "inputs": [],
      "name": "clock",
      "outputs": [
        {
          "internalType": "uint48",
          "name": "",
          "type": "uint48"
        }
      ],
      "stateMutability": "view",
      "type": "function"
    },
    {
      "inputs": [],
      "name": "decimals",
      "outputs": [
        {
          "internalType": "uint8",
          "name": "",
          "type": "uint8"
        }
      ],
      "stateMutability": "view",
      "type": "function"
    },
    {
      "inputs": [
        {
          "internalType": "address",
          "name": "delegatee",
          "type": "address"
        }
      ],
      "name": "delegate",
      "outputs": [],
      "stateMutability": "nonpayable",
      "type": "function"
    },
    {
      "inputs": [
        {
          "internalType": "address",
          "name": "delegatee",
          "type": "address"
        },
        {
          "internalType": "uint256",
          "name": "nonce",
          "type": "uint256"
        },
        {
          "internalType": "uint256",
          "name": "expiry",
          "type": "uint256"
        },
        {
          "internalType": "uint8",
          "name": "v",
          "type": "uint8"
        },
        {
          "internalType": "bytes32",
          "name": "r",
          "type": "bytes32"
        },
        {
          "internalType": "bytes32",
          "name": "s",
          "type": "bytes32"
        }
      ],
      "name": "delegateBySig",
      "outputs": [],
      "stateMutability": "nonpayable",
      "type": "function"
    },
    {
      "inputs": [
        {
          "internalType": "address",
          "name": "account",
          "type": "address"
        }
      ],
      "name": "delegates",
      "outputs": [
        {
          "internalType": "address",
          "name": "",
          "type": "address"
        }
      ],
      "stateMutability": "view",
      "type": "function"
    },
    {
      "inputs": [],
      "name": "eip712Domain",
      "outputs": [
        {
          "internalType": "bytes1",
          "name": "fields",
          "type": "bytes1"
        },
        {
          "internalType": "string",
          "name": "name",
          "type": "string"
        },
        {
          "internalType": "string",
          "name": "version",
          "type": "string"
        },
        {
          "internalType": "uint256",
          "name": "chainId",
          "type": "uint256"
        },
        {
          "internalType": "address",
          "name": "verifyingContract",
          "type": "address"
        },
        {
          "internalType": "bytes32",
          "name": "salt",
          "type": "bytes32"
        },
        {
          "internalType": "uint256[]",
          "name": "extensions",
          "type": "uint256[]"
        }
      ],
      "stateMutability": "view",
      "type": "function"
    },
    {
      "inputs": [
        {
          "internalType": "uint256",
          "name": "timepoint",
          "type": "uint256"
        }
      ],
      "name": "getPastTotalSupply",
      "outputs": [
        {
          "internalType": "uint256",
          "name": "",
          "type": "uint256"
        }
      ],
      "stateMutability": "view",
      "type": "function"
    },
    {
      "inputs": [
        {
          "internalType": "address",
          "name": "account",
          "type": "address"
        },
        {
          "internalType": "uint256",
          "name": "timepoint",
          "type": "uint256"
        }
      ],
      "name": "getPastVotes",
      "outputs": [
        {
          "internalType": "uint256",
          "name": "",
          "type": "uint256"
        }
      ],
      "stateMutability": "view",
      "type": "function"
    },
    {
      "inputs": [
        {
          "internalType": "address",
          "name": "account",
          "type": "address"
        }
      ],
      "name": "getVotes",
      "outputs": [
        {
          "internalType": "uint256",
          "name": "",
          "type": "uint256"
        }
      ],
      "stateMutability": "view",
      "type": "function"
    },
    {
      "inputs": [
        {
          "internalType": "address",
          "name": "to",
          "type": "address"
        },
        {
          "internalType": "uint256",
          "name": "amount",
          "type": "uint256"
        }
      ],
      "name": "mint",
      "outputs": [],
      "stateMutability": "nonpayable",
      "type": "function"
    },
    {
      "inputs": [],
      "name": "name",
      "outputs": [
        {
          "internalType": "string",
          "name": "",
          "type": "string"
        }
      ],
      "stateMutability": "view",
      "type": "function"
    },
    {
      "inputs": [
        {
          "internalType": "address",
          "name": "owner",
          "type": "address"
        }
      ],
      "name": "nonces",
      "outputs": [
        {
          "internalType": "uint256",
          "name": "",
          "type": "uint256"
        }
      ],
      "stateMutability": "view",
      "type": "function"
    },
    {
      "inputs": [
        {
          "internalType": "address",
          "name": "account",
          "type": "address"
        }
      ],
      "name": "numCheckpoints",
      "outputs": [
        {
          "internalType": "uint32",
          "name": "",
          "type": "uint32"
        }
      ],
      "stateMutability": "view",
      "type": "function"
    },
    {
      "inputs": [],
      "name": "owner",
      "outputs": [
        {
          "internalType": "address",
          "name": "",
          "type": "address"
        }
      ],
      "stateMutability": "view",
      "type": "function"
    },
    {
      "inputs": [],
      "name": "pause",
      "outputs": [],
      "stateMutability": "nonpayable",
      "type": "function"
    },
    {
      "inputs": [],
      "name": "paused",
      "outputs": [
        {
          "internalType": "bool",
          "name": "",
          "type": "bool"
        }
      ],
      "stateMutability": "view",
      "type": "function"
    },
    {
      "inputs": [
        {
          "internalType": "address",
          "name": "owner",
          "type": "address"
        },
        {
          "internalType": "address",
          "name": "spender",
          "type": "address"
        },
        {
          "internalType": "uint256",
          "name": "value",
          "type": "uint256"
        },
        {
          "internalType": "uint256",
          "name": "deadline",
          "type": "uint256"
        },
        {
          "internalType": "uint8",
          "name": "v",
          "type": "uint8"
        },
        {
          "internalType": "bytes32",
          "name": "r",
          "type": "bytes32"
        },
        {
          "internalType": "bytes32",
          "name": "s",
          "type": "bytes32"
        }
      ],
      "name": "permit",
      "outputs": [],
      "stateMutability": "nonpayable",
      "type": "function"
    },
    {
      "inputs": [],
      "name": "renounceOwnership",
      "outputs": [],
      "stateMutability": "nonpayable",
      "type": "function"
    },
    {
      "inputs": [
        {
          "internalType": "bytes4",
          "name": "interfaceId",
          "type": "bytes4"
        }
      ],
      "name": "supportsInterface",
      "outputs": [
        {
          "internalType": "bool",
          "name": "",
          "type": "bool"
        }
      ],
      "stateMutability": "view",
      "type": "function"
    },
    {
      "inputs": [],
      "name": "symbol",
      "outputs": [
        {
          "internalType": "string",
          "name": "",
          "type": "string"
        }
      ],
      "stateMutability": "view",
      "type": "function"
    },
    {
      "inputs": [],
      "name": "totalSupply",
      "outputs": [
        {
          "internalType": "uint256",
          "name": "",
          "type": "uint256"
        }
      ],
      "stateMutability": "view",
      "type": "function"
    },
    {
      "inputs": [
        {
          "internalType": "address",
          "name": "to",
          "type": "address"
        },
        {
          "internalType": "uint256",
          "name": "value",
          "type": "uint256"
        }
      ],
      "name": "transfer",
      "outputs": [
        {
          "internalType": "bool",
          "name": "",
          "type": "bool"
        }
      ],
      "stateMutability": "nonpayable",
      "type": "function"
    },
    {
      "inputs": [
        {
          "internalType": "address",
          "name": "to",
          "type": "address"
        },
        {
          "internalType": "uint256",
          "name": "value",
          "type": "uint256"
        }
      ],
      "name": "transferAndCall",
      "outputs": [
        {
          "internalType": "bool",
          "name": "",
          "type": "bool"
        }
      ],
      "stateMutability": "nonpayable",
      "type": "function"
    },
    {
      "inputs": [
        {
          "internalType": "address",
          "name": "to",
          "type": "address"
        },
        {
          "internalType": "uint256",
          "name": "value",
          "type": "uint256"
        },
        {
          "internalType": "bytes",
          "name": "data",
          "type": "bytes"
        }
      ],
      "name": "transferAndCall",
      "outputs": [
        {
          "internalType": "bool",
          "name": "",
          "type": "bool"
        }
      ],
      "stateMutability": "nonpayable",
      "type": "function"
    },
    {
      "inputs": [
        {
          "internalType": "address",
          "name": "from",
          "type": "address"
        },
        {
          "internalType": "address",
          "name": "to",
          "type": "address"
        },
        {
          "internalType": "uint256",
          "name": "value",
          "type": "uint256"
        }
      ],
      "name": "transferFrom",
      "outputs": [
        {
          "internalType": "bool",
          "name": "",
          "type": "bool"
        }
      ],
      "stateMutability": "nonpayable",
      "type": "function"
    },
    {
      "inputs": [
        {
          "internalType": "address",
          "name": "from",
          "type": "address"
        },
        {
          "internalType": "address",
          "name": "to",
          "type": "address"
        },
        {
          "internalType": "uint256",
          "name": "value",
          "type": "uint256"
        },
        {
          "internalType": "bytes",
          "name": "data",
          "type": "bytes"
        }
      ],
      "name": "transferFromAndCall",
      "outputs": [
        {
          "internalType": "bool",
          "name": "",
          "type": "bool"
        }
      ],
      "stateMutability": "nonpayable",
      "type": "function"
    },
    {
      "inputs": [
        {
          "internalType": "address",
          "name": "from",
          "type": "address"
        },
        {
          "internalType": "address",
          "name": "to",
          "type": "address"
        },
        {
          "internalType": "uint256",
          "name": "value",
          "type": "uint256"
        }
      ],
      "name": "transferFromAndCall",
      "outputs": [
        {
          "internalType": "bool",
          "name": "",
          "type": "bool"
        }
      ],
      "stateMutability": "nonpayable",
      "type": "function"
    },
    {
      "inputs": [
        {
          "internalType": "address",
          "name": "newOwner",
          "type": "address"
        }
      ],
      "name": "transferOwnership",
      "outputs": [],
      "stateMutability": "nonpayable",
      "type": "function"
    },
    {
      "inputs": [],
      "name": "unpause",
      "outputs": [],
      "stateMutability": "nonpayable",
      "type": "function"
    }
  ],
  "bytecode": "0x610160604052348015610010575f5ffd5b50604051612b23380380612b2383398101604081905261002f91610280565b604051806040016040528060088152602001672220a7aa37b5b2b760c11b81525080604051806040016040528060018152602001603160f81b81525083604051806040016040528060088152602001672220a7aa37b5b2b760c11b81525060405180604001604052806004815260200163111053d560e21b81525081600390816100b99190610345565b5060046100c68282610345565b5050506001600160a01b0381166100f757604051631e4fbdf760e01b81525f60048201526024015b60405180910390fd5b610100816101b8565b5061010c826006610211565b6101205261011b816007610211565b61014052815160208084019190912060e052815190820120610100524660a0526101a760e05161010051604080517f8b73c3c69bb8fe3d512ecc4cf759cc79239f7b179b0ffacaa9a75d522b39400f60208201529081019290925260608201524660808201523060a08201525f9060c00160405160208183030381529060405280519060200120905090565b60805250503060c052506104579050565b600580546001600160a01b03838116610100818102610100600160a81b031985161790945560405193909204169182907f8be0079c531659141344cd1fd0a4f28419497f9722a3daafe3b4186f6b6457e0905f90a35050565b5f60208351101561022c5761022583610243565b905061023d565b816102378482610345565b5060ff90505b92915050565b5f5f829050601f8151111561026d578260405163305a27a960e01b81526004016100ee91906103ff565b805161027882610434565b179392505050565b5f60208284031215610290575f5ffd5b81516001600160a01b03811681146102a6575f5ffd5b9392505050565b634e487b7160e01b5f52604160045260245ffd5b600181811c908216806102d557607f821691505b6020821081036102f357634e487b7160e01b5f52602260045260245ffd5b50919050565b601f82111561034057805f5260205f20601f840160051c8101602085101561031e5750805b601f840160051c820191505b8181101561033d575f815560010161032a565b50505b505050565b81516001600160401b0381111561035e5761035e6102ad565b6103728161036c84546102c1565b846102f9565b6020601f8211600181146103a4575f831561038d5750848201515b5f19600385901b1c1916600184901b17845561033d565b5f84815260208120601f198516915b828110156103d357878501518255602094850194600190920191016103b3565b50848210156103f057868401515f19600387901b60f8161c191681555b50505050600190811b01905550565b602081525f82518060208401528060208501604085015e5f604082850101526040601f19601f83011684010191505092915050565b805160208083015191908110156102f3575f1960209190910360031b1b16919050565b60805160a05160c05160e05161010051610120516101405161267b6104a85f395f61127a01525f61124d01525f610d8301525f610d5b01525f610cb601525f610ce001525f610d0a015261267b5ff3fe608060405234801561000f575f5ffd5b5060043610610234575f3560e01c806370a08231116101355780639ab24eb0116100b4578063d505accf11610079578063d505accf14610512578063d8fbe99414610525578063dd62ed3e14610538578063f1127ed814610570578063f2fde38b146105af575f5ffd5b80639ab24eb0146104b3578063a9059cbb146104c6578063c1d34b89146104d9578063c3cda520146104ec578063cae9ca51146104ff575f5ffd5b806384b0196e116100fa57806384b0196e146104515780638da5cb5b1461046c5780638e539e8c1461048257806391ddadf41461049557806395d89b41146104ab575f5ffd5b806370a08231146103f3578063715018a61461041b57806379cc6790146104235780637ecebe00146104365780638456cb5914610449575f5ffd5b80633a46b1a8116101c15780634bf5d7e9116101865780634bf5d7e914610340578063587cde1e1461036a5780635c19a95c146103ad5780635c975abb146103c05780636fcfff45146103cb575f5ffd5b80633a46b1a8146102ea5780633f4ba83a146102fd5780634000aea01461030757806340c10f191461031a57806342966c681461032d575f5ffd5b806318160ddd1161020757806318160ddd1461029b57806323b872dd146102ad578063313ce567146102c05780633177029f146102cf5780633644e515146102e2575f5ffd5b806301ffc9a71461023857806306fdde0314610260578063095ea7b3146102755780631296ee6214610288575b5f5ffd5b61024b6102463660046120a7565b6105c2565b60405190151581526020015b60405180910390f35b6102686105f8565b60405161025791906120f0565b61024b61028336600461211d565b610688565b61024b61029636600461211d565b61069f565b6002545b604051908152602001610257565b61024b6102bb366004612145565b6106c0565b60405160128152602001610257565b61024b6102dd36600461211d565b6106e3565b61029f6106fd565b61029f6102f836600461211d565b61070b565b610305610745565b005b61024b61031536600461221e565b610757565b61030561032836600461211d565b6107a3565b61030561033b366004612271565b6107b9565b60408051808201909152600e81526d06d6f64653d74696d657374616d760941b6020820152610268565b610395610378366004612288565b6001600160a01b039081165f908152600960205260409020541690565b6040516001600160a01b039091168152602001610257565b6103056103bb366004612288565b6107c6565b60055460ff1661024b565b6103de6103d9366004612288565b6107d1565b60405163ffffffff9091168152602001610257565b61029f610401366004612288565b6001600160a01b03165f9081526020819052604090205490565b6103056107db565b61030561043136600461211d565b6107ec565b61029f610444366004612288565b610801565b61030561080b565b61045961081b565b60405161025797969594939291906122a1565b60055461010090046001600160a01b0316610395565b61029f610490366004612271565b61085d565b60405165ffffffffffff42168152602001610257565b610268610881565b61029f6104c1366004612288565b610890565b61024b6104d436600461211d565b6108b0565b61024b6104e7366004612337565b6108bd565b6103056104fa3660046123ab565b61090d565b61024b61050d36600461221e565b6109c9565b6103056105203660046123ff565b610a0f565b61024b610533366004612145565b610b45565b61029f610546366004612465565b6001600160a01b039182165f90815260016020908152604080832093909416825291909152205490565b61058361057e366004612496565b610b68565b60408051825165ffffffffffff1681526020928301516001600160d01b03169281019290925201610257565b6103056105bd366004612288565b610b85565b5f6001600160e01b0319821663b0202a1160e01b14806105f257506301ffc9a760e01b6001600160e01b03198316145b92915050565b606060038054610607906124d3565b80601f0160208091040260200160405190810160405280929190818152602001828054610633906124d3565b801561067e5780601f106106555761010080835404028352916020019161067e565b820191905f5260205f20905b81548152906001019060200180831161066157829003601f168201915b5050505050905090565b5f33610695818585610bbf565b5060019392505050565b5f6106b9838360405180602001604052805f815250610757565b9392505050565b5f336106cd858285610bd1565b6106d8858585610c4d565b506001949350505050565b5f6106b9838360405180602001604052805f8152506109c9565b5f610706610caa565b905090565b5f61073561071883610dd3565b6001600160a01b0385165f908152600a6020526040902090610e17565b6001600160d01b03169392505050565b61074d610ec7565b610755610efa565b565b5f61076284846108b0565b6107965760405163118d81d760e11b81526001600160a01b0385166004820152602481018490526044015b60405180910390fd5b6106953333868686610f4c565b6107ab610ec7565b6107b58282611099565b5050565b6107c333826110cd565b50565b336107b58183611101565b5f6105f282611172565b6107e3610ec7565b6107555f611193565b6107f7823383610bd1565b6107b582826110cd565b5f6105f2826111ec565b610813610ec7565b610755611209565b5f6060805f5f5f606061082c611246565b610834611273565b604080515f80825260208201909252600f60f81b9b939a50919850469750309650945092509050565b5f61087261086a83610dd3565b600b90610e17565b6001600160d01b031692915050565b606060048054610607906124d3565b6001600160a01b0381165f908152600a60205260408120610872906112a0565b5f33610695818585610c4d565b5f6108c98585856106c0565b61090057604051635ab42af360e11b81526001600160a01b038087166004830152851660248201526044810184905260640161078d565b6106d83386868686610f4c565b8342111561093157604051632341d78760e11b81526004810185905260240161078d565b604080517fe48329057bfd03d55e49b547132e39cffd9c1820ad7b9d4c5307691425d15adf60208201526001600160a01b0388169181019190915260608101869052608081018590525f906109aa906109a29060a001604051602081830303815290604052805190602001206112d7565b858585611303565b90506109b6818761132f565b6109c08188611101565b50505050505050565b5f6109d48484610688565b610a0357604051631439557160e21b81526001600160a01b03851660048201526024810184905260440161078d565b61069533858585611381565b83421115610a335760405163313c898160e11b81526004810185905260240161078d565b5f7f6e71edae12b1b97f4d1f60370fef10105fa2faae0126114a169c64845d6126c9888888610a7e8c6001600160a01b03165f90815260086020526040902080546001810190915590565b6040805160208101969096526001600160a01b0394851690860152929091166060840152608083015260a082015260c0810186905260e0016040516020818303038152906040528051906020012090505f610ad8826112d7565b90505f610ae782878787611303565b9050896001600160a01b0316816001600160a01b031614610b2e576040516325c0072360e11b81526001600160a01b0380831660048301528b16602482015260440161078d565b610b398a8a8a610bbf565b50505050505050505050565b5f610b6084848460405180602001604052805f8152506108bd565b949350505050565b604080518082019091525f80825260208201526106b983836114bb565b610b8d610ec7565b6001600160a01b038116610bb657604051631e4fbdf760e01b81525f600482015260240161078d565b6107c381611193565b610bcc83838360016114ef565b505050565b6001600160a01b038381165f908152600160209081526040808320938616835292905220545f19811015610c475781811015610c3957604051637dc7a0d960e11b81526001600160a01b0384166004820152602481018290526044810183905260640161078d565b610c4784848484035f6114ef565b50505050565b6001600160a01b038316610c7657604051634b637e8f60e11b81525f600482015260240161078d565b6001600160a01b038216610c9f5760405163ec442f0560e01b81525f600482015260240161078d565b610bcc8383836115c1565b5f306001600160a01b037f000000000000000000000000000000000000000000000000000000000000000016148015610d0257507f000000000000000000000000000000000000000000000000000000000000000046145b15610d2c57507f000000000000000000000000000000000000000000000000000000000000000090565b610706604080517f8b73c3c69bb8fe3d512ecc4cf759cc79239f7b179b0ffacaa9a75d522b39400f60208201527f0000000000000000000000000000000000000000000000000000000000000000918101919091527f000000000000000000000000000000000000000000000000000000000000000060608201524660808201523060a08201525f9060c00160405160208183030381529060405280519060200120905090565b5f4265ffffffffffff81168310610e0e57604051637669fc0f60e11b81526004810184905265ffffffffffff8216602482015260440161078d565b6106b9836115cc565b81545f9081816005811115610e73575f610e3084611602565b610e3a908561251f565b5f8881526020902090915081015465ffffffffffff9081169087161015610e6357809150610e71565b610e6e816001612532565b92505b505b5f610e808787858561175a565b90508015610eba57610ea487610e9760018461251f565b5f91825260209091200190565b54600160301b90046001600160d01b0316610ebc565b5f5b979650505050505050565b6005546001600160a01b036101009091041633146107555760405163118cdaa760e01b815233600482015260240161078d565b610f026117b0565b6005805460ff191690557f5db9ee0a495bf2e6ff9c91a7834c1ba4fdd244a5e8aa4e537bd38aeae4b073aa335b6040516001600160a01b03909116815260200160405180910390a1565b826001600160a01b03163b5f03610f81576040516322a5b36760e21b81526001600160a01b038416600482015260240161078d565b604051632229f29760e21b81526001600160a01b038416906388a7ca5c90610fb3908890889087908790600401612545565b6020604051808303815f875af1925050508015610fed575060408051601f3d908101601f19168201909252610fea91810190612581565b60015b611054573d80801561101a576040519150601f19603f3d011682016040523d82523d5f602084013e61101f565b606091505b5080515f0361104c576040516322a5b36760e21b81526001600160a01b038516600482015260240161078d565b805160208201fd5b6001600160e01b03198116632229f29760e21b14611090576040516322a5b36760e21b81526001600160a01b038516600482015260240161078d565b505b5050505050565b6001600160a01b0382166110c25760405163ec442f0560e01b81525f600482015260240161078d565b6107b55f83836115c1565b6001600160a01b0382166110f657604051634b637e8f60e11b81525f600482015260240161078d565b6107b5825f836115c1565b6001600160a01b038281165f8181526009602052604080822080548686166001600160a01b0319821681179092559151919094169392849290917f3134e8a2e6d97e929a7e54011ea5485d7d196dd5f0ba4d4ef95803e8e3fc257f9190a4610bcc818361116d866117d3565b6117f0565b6001600160a01b0381165f908152600a60205260408120546105f290611959565b600580546001600160a01b03838116610100818102610100600160a81b031985161790945560405193909204169182907f8be0079c531659141344cd1fd0a4f28419497f9722a3daafe3b4186f6b6457e0905f90a35050565b6001600160a01b0381165f908152600860205260408120546105f2565b611211611989565b6005805460ff191660011790557f62e78cea01bee320cd4e420270b5ea74000d11b0c9f74754ebdbfc544b05a258610f2f3390565b60606107067f000000000000000000000000000000000000000000000000000000000000000060066119ad565b60606107067f000000000000000000000000000000000000000000000000000000000000000060076119ad565b80545f9080156112cf576112b983610e9760018461251f565b54600160301b90046001600160d01b03166106b9565b5f9392505050565b5f6105f26112e3610caa565b8360405161190160f01b8152600281019290925260228201526042902090565b5f5f5f5f61131388888888611a56565b9250925092506113238282611b1e565b50909695505050505050565b6001600160a01b0382165f908152600860205260409020805460018101909155818114610bcc576040516301d4b62360e61b81526001600160a01b03841660048201526024810182905260440161078d565b826001600160a01b03163b5f036113b65760405163deb6d3ed60e01b81526001600160a01b038416600482015260240161078d565b6040516307b04a2d60e41b81526001600160a01b03841690637b04a2d0906113e69087908690869060040161259c565b6020604051808303815f875af1925050508015611420575060408051601f3d908101601f1916820190925261141d91810190612581565b60015b61147f573d80801561144d576040519150601f19603f3d011682016040523d82523d5f602084013e611452565b606091505b5080515f0361104c5760405163deb6d3ed60e01b81526001600160a01b038516600482015260240161078d565b6001600160e01b031981166307b04a2d60e41b146110925760405163deb6d3ed60e01b81526001600160a01b038516600482015260240161078d565b604080518082019091525f80825260208201526001600160a01b0383165f908152600a602052604090206106b99083611bd6565b6001600160a01b0384166115185760405163e602df0560e01b81525f600482015260240161078d565b6001600160a01b03831661154157604051634a1406b160e11b81525f600482015260240161078d565b6001600160a01b038085165f9081526001602090815260408083209387168352929052208290558015610c4757826001600160a01b0316846001600160a01b03167f8c5be1e5ebec7d5bd14f71427d1e84f3dd0314c0f7b2291e5b200ac8c7c3b925846040516115b391815260200190565b60405180910390a350505050565b610bcc838383611c43565b5f65ffffffffffff8211156115fe576040516306dfcc6560e41b8152603060048201526024810183905260440161078d565b5090565b5f6001821161160f575090565b816001600160801b82106116285760809190911c9060401b5b6801000000000000000082106116435760409190911c9060201b5b640100000000821061165a5760209190911c9060101b5b62010000821061166f5760109190911c9060081b5b61010082106116835760089190911c9060041b5b601082106116965760049190911c9060021b5b600482106116a25760011b5b600302600190811c908185816116ba576116ba6125cb565b048201901c905060018185816116d2576116d26125cb565b048201901c905060018185816116ea576116ea6125cb565b048201901c90506001818581611702576117026125cb565b048201901c9050600181858161171a5761171a6125cb565b048201901c90506001818581611732576117326125cb565b048201901c905061175181858161174b5761174b6125cb565b04821190565b90039392505050565b5f5b818310156117a8575f85815260209020838316600285851804019081015465ffffffffffff86811691161115611794578092506117a2565b61179f816001612532565b93505b5061175c565b509392505050565b60055460ff1661075557604051638dfc202b60e01b815260040160405180910390fd5b6001600160a01b0381165f908152602081905260408120546105f2565b816001600160a01b0316836001600160a01b03161415801561181157505f81115b15610bcc576001600160a01b038316156118b8576001600160a01b0383165f908152600a60205260408120819061185390611ca961184e86611cb4565b611ce7565b6001600160d01b031691506001600160d01b03169150846001600160a01b03167fdec2bacdd2f05b59de34da9b523dff8be42e5e38e818c82fdb0bae774387a72483836040516118ad929190918252602082015260400190565b60405180910390a250505b6001600160a01b03821615610bcc576001600160a01b0382165f908152600a6020526040812081906118f090611d1861184e86611cb4565b6001600160d01b031691506001600160d01b03169150836001600160a01b03167fdec2bacdd2f05b59de34da9b523dff8be42e5e38e818c82fdb0bae774387a724838360405161194a929190918252602082015260400190565b60405180910390a25050505050565b5f63ffffffff8211156115fe576040516306dfcc6560e41b8152602060048201526024810183905260440161078d565b60055460ff16156107555760405163d93c066560e01b815260040160405180910390fd5b606060ff83146119c7576119c083611d23565b90506105f2565b8180546119d3906124d3565b80601f01602080910402602001604051908101604052809291908181526020018280546119ff906124d3565b8015611a4a5780601f10611a2157610100808354040283529160200191611a4a565b820191905f5260205f20905b815481529060010190602001808311611a2d57829003601f168201915b505050505090506105f2565b5f80807f7fffffffffffffffffffffffffffffff5d576e7357a4501ddfe92f46681b20a0841115611a8f57505f91506003905082611b14565b604080515f808252602082018084528a905260ff891692820192909252606081018790526080810186905260019060a0016020604051602081039080840390855afa158015611ae0573d5f5f3e3d5ffd5b5050604051601f1901519150506001600160a01b038116611b0b57505f925060019150829050611b14565b92505f91508190505b9450945094915050565b5f826003811115611b3157611b316125df565b03611b3a575050565b6001826003811115611b4e57611b4e6125df565b03611b6c5760405163f645eedf60e01b815260040160405180910390fd5b6002826003811115611b8057611b806125df565b03611ba15760405163fce698f760e01b81526004810182905260240161078d565b6003826003811115611bb557611bb56125df565b036107b5576040516335e2f38360e21b81526004810182905260240161078d565b604080518082019091525f8082526020820152825f018263ffffffff1681548110611c0357611c036125f3565b5f9182526020918290206040805180820190915291015465ffffffffffff81168252600160301b90046001600160d01b0316918101919091529392505050565b611c4e838383611d60565b6001600160a01b038316611c9e575f611c6660025490565b90506001600160d01b0380821115611c9b57604051630e58ae9360e11b8152600481018390526024810182905260440161078d565b50505b610bcc838383611d73565b5f6106b98284612607565b5f6001600160d01b038211156115fe576040516306dfcc6560e41b815260d060048201526024810183905260440161078d565b5f80611d0b42611d03611cf9886112a0565b868863ffffffff16565b879190611de8565b915091505b935093915050565b5f6106b98284612626565b60605f611d2f83611df5565b6040805160208082528183019092529192505f91906020820181803683375050509182525060208101929092525090565b611d68611989565b610bcc838383611e1c565b6001600160a01b038316611d9557611d92600b611d1861184e84611cb4565b50505b6001600160a01b038216611db757611db4600b611ca961184e84611cb4565b50505b6001600160a01b038381165f90815260096020526040808220548584168352912054610bcc929182169116836117f0565b5f80611d0b858585611f42565b5f60ff8216601f8111156105f257604051632cd44ac360e21b815260040160405180910390fd5b6001600160a01b038316611e46578060025f828254611e3b9190612532565b90915550611eb69050565b6001600160a01b0383165f9081526020819052604090205481811015611e985760405163391434e360e21b81526001600160a01b0385166004820152602481018290526044810183905260640161078d565b6001600160a01b0384165f9081526020819052604090209082900390555b6001600160a01b038216611ed257600280548290039055611ef0565b6001600160a01b0382165f9081526020819052604090208054820190555b816001600160a01b0316836001600160a01b03167fddf252ad1be2c89b69c2b068fc378daa952ba7f163c4a11628f55a4df523b3ef83604051611f3591815260200190565b60405180910390a3505050565b82545f9081908015612038575f611f5e87610e9760018561251f565b805490915065ffffffffffff80821691600160301b90046001600160d01b0316908816821115611fa157604051632520601d60e01b815260040160405180910390fd5b8765ffffffffffff168265ffffffffffff1603611fda57825465ffffffffffff16600160301b6001600160d01b0389160217835561202a565b6040805180820190915265ffffffffffff808a1682526001600160d01b03808a1660208085019182528d54600181018f555f8f81529190912094519151909216600160301b029216919091179101555b9450859350611d1092505050565b50506040805180820190915265ffffffffffff80851682526001600160d01b0380851660208085019182528854600181018a555f8a815291822095519251909316600160301b029190931617920191909155905081611d10565b6001600160e01b0319811681146107c3575f5ffd5b5f602082840312156120b7575f5ffd5b81356106b981612092565b5f81518084528060208401602086015e5f602082860101526020601f19601f83011685010191505092915050565b602081525f6106b960208301846120c2565b80356001600160a01b0381168114612118575f5ffd5b919050565b5f5f6040838503121561212e575f5ffd5b61213783612102565b946020939093013593505050565b5f5f5f60608486031215612157575f5ffd5b61216084612102565b925061216e60208501612102565b929592945050506040919091013590565b634e487b7160e01b5f52604160045260245ffd5b5f82601f8301126121a2575f5ffd5b813567ffffffffffffffff8111156121bc576121bc61217f565b604051601f8201601f19908116603f0116810167ffffffffffffffff811182821017156121eb576121eb61217f565b604052818152838201602001851015612202575f5ffd5b816020850160208301375f918101602001919091529392505050565b5f5f5f60608486031215612230575f5ffd5b61223984612102565b925060208401359150604084013567ffffffffffffffff81111561225b575f5ffd5b61226786828701612193565b9150509250925092565b5f60208284031215612281575f5ffd5b5035919050565b5f60208284031215612298575f5ffd5b6106b982612102565b60ff60f81b8816815260e060208201525f6122bf60e08301896120c2565b82810360408401526122d181896120c2565b606084018890526001600160a01b038716608085015260a0840186905283810360c0850152845180825260208087019350909101905f5b81811015612326578351835260209384019390920191600101612308565b50909b9a5050505050505050505050565b5f5f5f5f6080858703121561234a575f5ffd5b61235385612102565b935061236160208601612102565b925060408501359150606085013567ffffffffffffffff811115612383575f5ffd5b61238f87828801612193565b91505092959194509250565b803560ff81168114612118575f5ffd5b5f5f5f5f5f5f60c087890312156123c0575f5ffd5b6123c987612102565b955060208701359450604087013593506123e56060880161239b565b9598949750929560808101359460a0909101359350915050565b5f5f5f5f5f5f5f60e0888a031215612415575f5ffd5b61241e88612102565b965061242c60208901612102565b955060408801359450606088013593506124486080890161239b565b9699959850939692959460a0840135945060c09093013592915050565b5f5f60408385031215612476575f5ffd5b61247f83612102565b915061248d60208401612102565b90509250929050565b5f5f604083850312156124a7575f5ffd5b6124b083612102565b9150602083013563ffffffff811681146124c8575f5ffd5b809150509250929050565b600181811c908216806124e757607f821691505b60208210810361250557634e487b7160e01b5f52602260045260245ffd5b50919050565b634e487b7160e01b5f52601160045260245ffd5b818103818111156105f2576105f261250b565b808201808211156105f2576105f261250b565b6001600160a01b03858116825284166020820152604081018390526080606082018190525f90612577908301846120c2565b9695505050505050565b5f60208284031215612591575f5ffd5b81516106b981612092565b60018060a01b0384168152826020820152606060408201525f6125c260608301846120c2565b95945050505050565b634e487b7160e01b5f52601260045260245ffd5b634e487b7160e01b5f52602160045260245ffd5b634e487b7160e01b5f52603260045260245ffd5b6001600160d01b0382811682821603908111156105f2576105f261250b565b6001600160d01b0381811683821601908111156105f2576105f261250b56fea2646970667358221220e8ef0f8d6ef4db36a23195fd4cdb53ca553226bbf7536bc996abaa0010f2ce7064736f6c634300081c0033",
  "linkReferences": {},
  "deployedLinkReferences": {}
}