{
  "_format": "hh-sol-artifact-1",
  "contractName": "DAOGovernor",
  "sourceName": "contracts/DAOGovernor.sol",
  "abi": [
    {
      "inputs": [
        {
          "internalType": "contract IVotes",
          "name": "_token",
          "type": "address"
        },
        {
          "internalType": "contract TimelockController",
          "name": "_timelock",
          "type": "address"
        }
      ],
      "stateMutability": "nonpayable",
      "type": "constructor"
    },
    {
      "inputs": [],
      "name": "CheckpointUnorderedInsertion",
      "type": "error"
    },
    {
      "inputs": [],
      "name": "FailedCall",
      "type": "error"
    },
    {
      "inputs": [
        {
          "internalType": "address",
          "name": "voter",
          "type": "address"
        }
      ],
      "name": "GovernorAlreadyCastVote",
      "type": "error"
    },
    {
      "inputs": [
        {
          "internalType": "uint256",
          "name": "proposalId",
          "type": "uint256"
        }
      ],
      "name": "GovernorAlreadyQueuedProposal",
      "type": "error"
    },
    {
      "inputs": [],
      "name": "GovernorDisabledDeposit",
      "type": "error"
    },
    {
      "inputs": [
        {
          "internalType": "address",
          "name": "proposer",
          "type": "address"
        },
        {
          "internalType": "uint256",
          "name": "votes",
          "type": "uint256"
        },
        {
          "internalType": "uint256",
          "name": "threshold",
          "type": "uint256"
        }
      ],
      "name": "GovernorInsufficientProposerVotes",
      "type": "error"
    },
    {
      "inputs": [
        {
          "internalType": "uint256",
          "name": "targets",
          "type": "uint256"
        },
        {
          "internalType": "uint256",
          "name": "calldatas",
          "type": "uint256"
        },
        {
          "internalType": "uint256",
          "name": "values",
          "type": "uint256"
        }
      ],
      "name": "GovernorInvalidProposalLength",
      "type": "error"
    },
    {
      "inputs": [
        {
          "internalType": "uint256",
          "name": "quorumNumerator",
          "type": "uint256"
        },
        {
          "internalType": "uint256",
          "name": "quorumDenominator",
          "type": "uint256"
        }
      ],
      "name": "GovernorInvalidQuorumFraction",
      "type": "error"
    },
    {
      "inputs": [
        {
          "internalType": "address",
          "name": "voter",
          "type": "address"
        }
      ],
      "name": "GovernorInvalidSignature",
      "type": "error"
    },
    {
      "inputs": [],
      "name": "GovernorInvalidVoteParams",
      "type": "error"
    },
    {
      "inputs": [],
      "name": "GovernorInvalidVoteType",
      "type": "error"
    },
    {
      "inputs": [
        {
          "internalType": "uint256",
          "name": "votingPeriod",
          "type": "uint256"
        }
      ],
      "name": "GovernorInvalidVotingPeriod",
      "type": "error"
    },
    {
      "inputs": [
        {
          "internalType": "uint256",
          "name": "proposalId",
          "type": "uint256"
        }
      ],
      "name": "GovernorNonexistentProposal",
      "type": "error"
    },
    {
      "inputs": [
        {
          "internalType": "uint256",
          "name": "proposalId",
          "type": "uint256"
        }
      ],
      "name": "GovernorNotQueuedProposal",
      "type": "error"
    },
    {
      "inputs": [
        {
          "internalType": "address",
          "name": "account",
          "type": "address"
        }
      ],
      "name": "GovernorOnlyExecutor",
      "type": "error"
    },
    {
      "inputs": [],
      "name": "GovernorQueueNotImplemented",
      "type": "error"
    },
    {
      "inputs": [
        {
          "internalType": "address",
          "name": "proposer",
          "type": "address"
        }
      ],
      "name": "GovernorRestrictedProposer",
      "type": "error"
    },
    {
      "inputs": [
        {
          "internalType": "uint256",
          "name": "proposalId",
          "type": "uint256"
        },
        {
          "internalType": "address",
          "name": "account",
          "type": "address"
        }
      ],
      "name": "GovernorUnableToCancel",
      "type": "error"
    },
    {
      "inputs": [
        {
          "internalType": "uint256",
          "name": "proposalId",
          "type": "uint256"
        },
        {
          "internalType": "enum IGovernor.ProposalState",
          "name": "current",
          "type": "uint8"
        },
        {
          "internalType": "bytes32",
          "name": "expectedStates",
          "type": "bytes32"
        }
      ],
      "name": "GovernorUnexpectedProposalState",
      "type": "error"
    },
    {
      "inputs": [
        {
          "internalType": "address",
          "name": "account",
          "type": "address"
        },
        {
          "internalType": "uint256",
          "name": "currentNonce",
          "type": "uint256"
        }
      ],
      "name": "InvalidAccountNonce",
      "type": "error"
    },
    {
      "inputs": [],
      "name": "InvalidShortString",
      "type": "error"
    },
    {
      "inputs": [
        {
          "internalType": "uint8",
          "name": "bits",
          "type": "uint8"
        },
        {
          "internalType": "uint256",
          "name": "value",
          "type": "uint256"
        }
      ],
      "name": "SafeCastOverflowedUintDowncast",
      "type": "error"
    },
    {
      "inputs": [
        {
          "internalType": "string",
          "name": "str",
          "type": "string"
        }
      ],
      "name": "StringTooLong",
      "type": "error"
    },
    {
      "anonymous": false,
      "inputs": [],
      "name": "EIP712DomainChanged",
      "type": "event"
    },
    {
      "anonymous": false,
      "inputs": [
        {
          "indexed": false,
          "internalType": "uint256",
          "name": "proposalId",
          "type": "uint256"
        }
      ],
      "name": "ProposalCanceled",
      "type": "event"
    },
    {
      "anonymous": false,
      "inputs": [
        {
          "indexed": false,
          "internalType": "uint256",
          "name": "proposalId",
          "type": "uint256"
        },
        {
          "indexed": false,
          "internalType": "address",
          "name": "proposer",
          "type": "address"
        },
        {
          "indexed": false,
          "internalType": "address[]",
          "name": "targets",
          "type": "address[]"
        },
        {
          "indexed": false,
          "internalType": "uint256[]",
          "name": "values",
          "type": "uint256[]"
        },
        {
          "indexed": false,
          "internalType": "string[]",
          "name": "signatures",
          "type": "string[]"
        },
        {
          "indexed": false,
          "internalType": "bytes[]",
          "name": "calldatas",
          "type": "bytes[]"
        },
        {
          "indexed": false,
          "internalType": "uint256",
          "name": "voteStart",
          "type": "uint256"
        },
        {
          "indexed": false,
          "internalType": "uint256",
          "name": "voteEnd",
          "type": "uint256"
        },
        {
          "indexed": false,
          "internalType": "string",
          "name": "description",
          "type": "string"
        }
      ],
      "name": "ProposalCreated",
      "type": "event"
    },
    {
      "anonymous": false,
      "inputs": [
        {
          "indexed": false,
          "internalType": "uint256",
          "name": "proposalId",
          "type": "uint256"
        }
      ],
      "name": "ProposalExecuted",
      "type": "event"
    },
    {
      "anonymous": false,
      "inputs": [
        {
          "indexed": false,
          "internalType": "uint256",
          "name": "proposalId",
          "type": "uint256"
        },
        {
          "indexed": false,
          "internalType": "uint256",
          "name": "etaSeconds",
          "type": "uint256"
        }
      ],
      "name": "ProposalQueued",
      "type": "event"
    },
    {
      "anonymous": false,
      "inputs": [
        {
          "indexed": false,
          "internalType": "uint256",
          "name": "oldProposalThreshold",
          "type": "uint256"
        },
        {
          "indexed": false,
          "internalType": "uint256",
          "name": "newProposalThreshold",
          "type": "uint256"
        }
      ],
      "name": "ProposalThresholdSet",
      "type": "event"
    },
    {
      "anonymous": false,
      "inputs": [
        {
          "indexed": false,
          "internalType": "uint256",
          "name": "oldQuorumNumerator",
          "type": "uint256"
        },
        {
          "indexed": false,
          "internalType": "uint256",
          "name": "newQuorumNumerator",
          "type": "uint256"
        }
      ],
      "name": "QuorumNumeratorUpdated",
      "type": "event"
    },
    {
      "anonymous": false,
      "inputs": [
        {
          "indexed": false,
          "internalType": "address",
          "name": "oldTimelock",
          "type": "address"
        },
        {
          "indexed": false,
          "internalType": "address",
          "name": "newTimelock",
          "type": "address"
        }
      ],
      "name": "TimelockChange",
      "type": "event"
    },
    {
      "anonymous": false,
      "inputs": [
        {
          "indexed": true,
          "internalType": "address",
          "name": "voter",
          "type": "address"
        },
        {
          "indexed": false,
          "internalType": "uint256",
          "name": "proposalId",
          "type": "uint256"
        },
        {
          "indexed": false,
          "internalType": "uint8",
          "name": "support",
          "type": "uint8"
        },
        {
          "indexed": false,
          "internalType": "uint256",
          "name": "weight",
          "type": "uint256"
        },
        {
          "indexed": false,
          "internalType": "string",
          "name": "reason",
          "type": "string"
        }
      ],
      "name": "VoteCast",
      "type": "event"
    },
    {
      "anonymous": false,
      "inputs": [
        {
          "indexed": true,
          "internalType": "address",
          "name": "voter",
          "type": "address"
        },
        {
          "indexed": false,
          "internalType": "uint256",
          "name": "proposalId",
          "type": "uint256"
        },
        {
          "indexed": false,
          "internalType": "uint8",
          "name": "support",
          "type": "uint8"
        },
        {
          "indexed": false,
          "internalType": "uint256",
          "name": "weight",
          "type": "uint256"
        },
        {
          "indexed": false,
          "internalType": "string",
          "name": "reason",
          "type": "string"
        },
        {
          "indexed": false,
          "internalType": "bytes",
          "name": "params",
          "type": "bytes"
        }
      ],
      "name": "VoteCastWithParams",
      "type": "event"
    },
    {
      "anonymous": false,
      "inputs": [
        {
          "indexed": false,
          "internalType": "uint256",
          "name": "oldVotingDelay",
          "type": "uint256"
        },
        {
          "indexed": false,
          "internalType": "uint256",
          "name": "newVotingDelay",
          "type": "uint256"
        }
      ],
      "name": "VotingDelaySet",
      "type": "event"
    },
    {
      "anonymous": false,
      "inputs": [
        {
          "indexed": false,
          "internalType": "uint256",
          "name": "oldVotingPeriod",
          "type": "uint256"
        },
        {
          "indexed": false,
          "internalType": "uint256",
          "name": "newVotingPeriod",
          "type": "uint256"
        }
      ],
      "name": "VotingPeriodSet",
      "type": "event"
    },
    {
      "inputs": [],
      "name": "BALLOT_TYPEHASH",
      "outputs": [
        {
          "internalType": "bytes32",
          "name": "",
          "type": "bytes32"
        }
      ],
      "stateMutability": "view",
      "type": "function"
    },
    {
      "inputs": [],
      "name": "CLOCK_MODE",
      "outputs": [
        {
          "internalType": "string",
          "name": "",
          "type": "string"
        }
      ],
      "stateMutability": "view",
      "type": "function"
    },
    {
      "inputs": [],
      "name": "COUNTING_MODE",
      "outputs": [
        {
          "internalType": "string",
          "name": "",
          "type": "string"
        }
      ],
      "stateMutability": "pure",
      "type": "function"
    },
    {
      "inputs": [],
      "name": "EXTENDED_BALLOT_TYPEHASH",
      "outputs": [
        {
          "internalType": "bytes32",
          "name": "",
          "type": "bytes32"
        }
      ],
      "stateMutability": "view",
      "type": "function"
    },
    {
      "inputs": [
        {
          "internalType": "uint256",
          "name": "proposalId",
          "type": "uint256"
        }
      ],
      "name": "cancel",
      "outputs": [],
      "stateMutability": "nonpayable",
      "type": "function"
    },
    {
      "inputs": [
        {
          "internalType": "address[]",
          "name": "targets",
          "type": "address[]"
        },
        {
          "internalType": "uint256[]",
          "name": "values",
          "type": "uint256[]"
        },
        {
          "internalType": "bytes[]",
          "name": "calldatas",
          "type": "bytes[]"
        },
        {
          "internalType": "bytes32",
          "name": "descriptionHash",
          "type": "bytes32"
        }
      ],
      "name": "cancel",
      "outputs": [
        {
          "internalType": "uint256",
          "name": "",
          "type": "uint256"
        }
      ],
      "stateMutability": "nonpayable",
      "type": "function"
    },
    {
      "inputs": [
        {
          "internalType": "uint256",
          "name": "proposalId",
          "type": "uint256"
        },
        {
          "internalType": "uint8",
          "name": "support",
          "type": "uint8"
        }
      ],
      "name": "castVote",
      "outputs": [
        {
          "internalType": "uint256",
          "name": "",
          "type": "uint256"
        }
      ],
      "stateMutability": "nonpayable",
      "type": "function"
    },
    {
      "inputs": [
        {
          "internalType": "uint256",
          "name": "proposalId",
          "type": "uint256"
        },
        {
          "internalType": "uint8",
          "name": "support",
          "type": "uint8"
        },
        {
          "internalType": "address",
          "name": "voter",
          "type": "address"
        },
        {
          "internalType": "bytes",
          "name": "signature",
          "type": "bytes"
        }
      ],
      "name": "castVoteBySig",
      "outputs": [
        {
          "internalType": "uint256",
          "name": "",
          "type": "uint256"
        }
      ],
      "stateMutability": "nonpayable",
      "type": "function"
    },
    {
      "inputs": [
        {
          "internalType": "uint256",
          "name": "proposalId",
          "type": "uint256"
        },
        {
          "internalType": "uint8",
          "name": "support",
          "type": "uint8"
        },
        {
          "internalType": "string",
          "name": "reason",
          "type": "string"
        }
      ],
      "name": "castVoteWithReason",
      "outputs": [
        {
          "internalType": "uint256",
          "name": "",
          "type": "uint256"
        }
      ],
      "stateMutability": "nonpayable",
      "type": "function"
    },
    {
      "inputs": [
        {
          "internalType": "uint256",
          "name": "proposalId",
          "type": "uint256"
        },
        {
          "internalType": "uint8",
          "name": "support",
          "type": "uint8"
        },
        {
          "internalType": "string",
          "name": "reason",
          "type": "string"
        },
        {
          "internalType": "bytes",
          "name": "params",
          "type": "bytes"
        }
      ],
      "name": "castVoteWithReasonAndParams",
      "outputs": [
        {
          "internalType": "uint256",
          "name": "",
          "type": "uint256"
        }
      ],
      "stateMutability": "nonpayable",
      "type": "function"
    },
    {
      "inputs": [
        {
          "internalType": "uint256",
          "name": "proposalId",
          "type": "uint256"
        },
        {
          "internalType": "uint8",
          "name": "support",
          "type": "uint8"
        },
        {
          "internalType": "address",
          "name": "voter",
          "type": "address"
        },
        {
          "internalType": "string",
          "name": "reason",
          "type": "string"
        },
        {
          "internalType": "bytes",
          "name": "params",
          "type": "bytes"
        },
        {
          "internalType": "bytes",
          "name": "signature",
          "type": "bytes"
        }
      ],
      "name": "castVoteWithReasonAndParamsBySig",
      "outputs": [
        {
          "internalType": "uint256",
          "name": "",
          "type": "uint256"
        }
      ],
      "stateMutability": "nonpayable",
      "type": "function"
    },
    {
      "inputs": [],
      "name": "clock",
      "outputs": [
        {
          "internalType": "uint48",
          "name": "",
          "type": "uint48"
        }
      ],
      "stateMutability": "view",
      "type": "function"
    },
    {
      "inputs": [],
      "name": "eip712Domain",
      "outputs": [
        {
          "internalType": "bytes1",
          "name": "fields",
          "type": "bytes1"
        },
        {
          "internalType": "string",
          "name": "name",
          "type": "string"
        },
        {
          "internalType": "string",
          "name": "version",
          "type": "string"
        },
        {
          "internalType": "uint256",
          "name": "chainId",
          "type": "uint256"
        },
        {
          "internalType": "address",
          "name": "verifyingContract",
          "type": "address"
        },
        {
          "internalType": "bytes32",
          "name": "salt",
          "type": "bytes32"
        },
        {
          "internalType": "uint256[]",
          "name": "extensions",
          "type": "uint256[]"
        }
      ],
      "stateMutability": "view",
      "type": "function"
    },
    {
      "inputs": [
        {
          "internalType": "address[]",
          "name": "targets",
          "type": "address[]"
        },
        {
          "internalType": "uint256[]",
          "name": "values",
          "type": "uint256[]"
        },
        {
          "internalType": "bytes[]",
          "name": "calldatas",
          "type": "bytes[]"
        },
        {
          "internalType": "bytes32",
          "name": "descriptionHash",
          "type": "bytes32"
        }
      ],
      "name": "execute",
      "outputs": [
        {
          "internalType": "uint256",
          "name": "",
          "type": "uint256"
        }
      ],
      "stateMutability": "payable",
      "type": "function"
    },
    {
      "inputs": [
        {
          "internalType": "uint256",
          "name": "proposalId",
          "type": "uint256"
        }
      ],
      "name": "execute",
      "outputs": [],
      "stateMutability": "payable",
      "type": "function"
    },
    {
      "inputs": [
        {
          "internalType": "address[]",
          "name": "targets",
          "type": "address[]"
        },
        {
          "internalType": "uint256[]",
          "name": "values",
          "type": "uint256[]"
        },
        {
          "internalType": "bytes[]",
          "name": "calldatas",
          "type": "bytes[]"
        },
        {
          "internalType": "bytes32",
          "name": "descriptionHash",
          "type": "bytes32"
        }
      ],
      "name": "getProposalId",
      "outputs": [
        {
          "internalType": "uint256",
          "name": "",
          "type": "uint256"
        }
      ],
      "stateMutability": "view",
      "type": "function"
    },
    {
      "inputs": [
        {
          "internalType": "address",
          "name": "account",
          "type": "address"
        },
        {
          "internalType": "uint256",
          "name": "timepoint",
          "type": "uint256"
        }
      ],
      "name": "getVotes",
      "outputs": [
        {
          "internalType": "uint256",
          "name": "",
          "type": "uint256"
        }
      ],
      "stateMutability": "view",
      "type": "function"
    },
    {
      "inputs": [
        {
          "internalType": "address",
          "name": "account",
          "type": "address"
        },
        {
          "internalType": "uint256",
          "name": "timepoint",
          "type": "uint256"
        },
        {
          "internalType": "bytes",
          "name": "params",
          "type": "bytes"
        }
      ],
      "name": "getVotesWithParams",
      "outputs": [
        {
          "internalType": "uint256",
          "name": "",
          "type": "uint256"
        }
      ],
      "stateMutability": "view",
      "type": "function"
    },
    {
      "inputs": [
        {
          "internalType": "uint256",
          "name": "proposalId",
          "type": "uint256"
        },
        {
          "internalType": "address",
          "name": "account",
          "type": "address"
        }
      ],
      "name": "hasVoted",
      "outputs": [
        {
          "internalType": "bool",
          "name": "",
          "type": "bool"
        }
      ],
      "stateMutability": "view",
      "type": "function"
    },
    {
      "inputs": [
        {
          "internalType": "address[]",
          "name": "targets",
          "type": "address[]"
        },
        {
          "internalType": "uint256[]",
          "name": "values",
          "type": "uint256[]"
        },
        {
          "internalType": "bytes[]",
          "name": "calldatas",
          "type": "bytes[]"
        },
        {
          "internalType": "bytes32",
          "name": "descriptionHash",
          "type": "bytes32"
        }
      ],
      "name": "hashProposal",
      "outputs": [
        {
          "internalType": "uint256",
          "name": "",
          "type": "uint256"
        }
      ],
      "stateMutability": "pure",
      "type": "function"
    },
    {
      "inputs": [],
      "name": "name",
      "outputs": [
        {
          "internalType": "string",
          "name": "",
          "type": "string"
        }
      ],
      "stateMutability": "view",
      "type": "function"
    },
    {
      "inputs": [
        {
          "internalType": "address",
          "name": "owner",
          "type": "address"
        }
      ],
      "name": "nonces",
      "outputs": [
        {
          "internalType": "uint256",
          "name": "",
          "type": "uint256"
        }
      ],
      "stateMutability": "view",
      "type": "function"
    },
    {
      "inputs": [
        {
          "internalType": "address",
          "name": "",
          "type": "address"
        },
        {
          "internalType": "address",
          "name": "",
          "type": "address"
        },
        {
          "internalType": "uint256[]",
          "name": "",
          "type": "uint256[]"
        },
        {
          "internalType": "uint256[]",
          "name": "",
          "type": "uint256[]"
        },
        {
          "internalType": "bytes",
          "name": "",
          "type": "bytes"
        }
      ],
      "name": "onERC1155BatchReceived",
      "outputs": [
        {
          "internalType": "bytes4",
          "name": "",
          "type": "bytes4"
        }
      ],
      "stateMutability": "nonpayable",
      "type": "function"
    },
    {
      "inputs": [
        {
          "internalType": "address",
          "name": "",
          "type": "address"
        },
        {
          "internalType": "address",
          "name": "",
          "type": "address"
        },
        {
          "internalType": "uint256",
          "name": "",
          "type": "uint256"
        },
        {
          "internalType": "uint256",
          "name": "",
          "type": "uint256"
        },
        {
          "internalType": "bytes",
          "name": "",
          "type": "bytes"
        }
      ],
      "name": "onERC1155Received",
      "outputs": [
        {
          "internalType": "bytes4",
          "name": "",
          "type": "bytes4"
        }
      ],
      "stateMutability": "nonpayable",
      "type": "function"
    },
    {
      "inputs": [
        {
          "internalType": "address",
          "name": "",
          "type": "address"
        },
        {
          "internalType": "address",
          "name": "",
          "type": "address"
        },
        {
          "internalType": "uint256",
          "name": "",
          "type": "uint256"
        },
        {
          "internalType": "bytes",
          "name": "",
          "type": "bytes"
        }
      ],
      "name": "onERC721Received",
      "outputs": [
        {
          "internalType": "bytes4",
          "name": "",
          "type": "bytes4"
        }
      ],
      "stateMutability": "nonpayable",
      "type": "function"
    },
    {
      "inputs": [],
      "name": "proposalCount",
      "outputs": [
        {
          "internalType": "uint256",
          "name": "",
          "type": "uint256"
        }
      ],
      "stateMutability": "view",
      "type": "function"
    },
    {
      "inputs": [
        {
          "internalType": "uint256",
          "name": "proposalId",
          "type": "uint256"
        }
      ],
      "name": "proposalDeadline",
      "outputs": [
        {
          "internalType": "uint256",
          "name": "",
          "type": "uint256"
        }
      ],
      "stateMutability": "view",
      "type": "function"
    },
    {
      "inputs": [
        {
          "internalType": "uint256",
          "name": "proposalId",
          "type": "uint256"
        }
      ],
      "name": "proposalDetails",
      "outputs": [
        {
          "internalType": "address[]",
          "name": "targets",
          "type": "address[]"
        },
        {
          "internalType": "uint256[]",
          "name": "values",
          "type": "uint256[]"
        },
        {
          "internalType": "bytes[]",
          "name": "calldatas",
          "type": "bytes[]"
        },
        {
          "internalType": "bytes32",
          "name": "descriptionHash",
          "type": "bytes32"
        }
      ],
      "stateMutability": "view",
      "type": "function"
    },
    {
      "inputs": [
        {
          "internalType": "uint256",
          "name": "index",
          "type": "uint256"
        }
      ],
      "name": "proposalDetailsAt",
      "outputs": [
        {
          "internalType": "uint256",
          "name": "proposalId",
          "type": "uint256"
        },
        {
          "internalType": "address[]",
          "name": "targets",
          "type": "address[]"
        },
        {
          "internalType": "uint256[]",
          "name": "values",
          "type": "uint256[]"
        },
        {
          "internalType": "bytes[]",
          "name": "calldatas",
          "type": "bytes[]"
        },
        {
          "internalType": "bytes32",
          "name": "descriptionHash",
          "type": "bytes32"
        }
      ],
      "stateMutability": "view",
      "type": "function"
    },
    {
      "inputs": [
        {
          "internalType": "uint256",
          "name": "proposalId",
          "type": "uint256"
        }
      ],
      "name": "proposalEta",
      "outputs": [
        {
          "internalType": "uint256",
          "name": "",
          "type": "uint256"
        }
      ],
      "stateMutability": "view",
      "type": "function"
    },
    {
      "inputs": [
        {
          "internalType": "uint256",
          "name": "proposalId",
          "type": "uint256"
        }
      ],
      "name": "proposalNeedsQueuing",
      "outputs": [
        {
          "internalType": "bool",
          "name": "",
          "type": "bool"
        }
      ],
      "stateMutability": "view",
      "type": "function"
    },
    {
      "inputs": [
        {
          "internalType": "uint256",
          "name": "proposalId",
          "type": "uint256"
        }
      ],
      "name": "proposalProposer",
      "outputs": [
        {
          "internalType": "address",
          "name": "",
          "type": "address"
        }
      ],
      "stateMutability": "view",
      "type": "function"
    },
    {
      "inputs": [
        {
          "internalType": "uint256",
          "name": "proposalId",
          "type": "uint256"
        }
      ],
      "name": "proposalSnapshot",
      "outputs": [
        {
          "internalType": "uint256",
          "name": "",
          "type": "uint256"
        }
      ],
      "stateMutability": "view",
      "type": "function"
    },
    {
      "inputs": [],
      "name": "proposalThreshold",
      "outputs": [
        {
          "internalType": "uint256",
          "name": "",
          "type": "uint256"
        }
      ],
      "stateMutability": "view",
      "type": "function"
    },
    {
      "inputs": [
        {
          "internalType": "uint256",
          "name": "proposalId",
          "type": "uint256"
        }
      ],
      "name": "proposalVotes",
      "outputs": [
        {
          "internalType": "uint256",
          "name": "againstVotes",
          "type": "uint256"
        },
        {
          "internalType": "uint256",
          "name": "forVotes",
          "type": "uint256"
        },
        {
          "internalType": "uint256",
          "name": "abstainVotes",
          "type": "uint256"
        }
      ],
      "stateMutability": "view",
      "type": "function"
    },
    {
      "inputs": [
        {
          "internalType": "address[]",
          "name": "targets",
          "type": "address[]"
        },
        {
          "internalType": "uint256[]",
          "name": "values",
          "type": "uint256[]"
        },
        {
          "internalType": "bytes[]",
          "name": "calldatas",
          "type": "bytes[]"
        },
        {
          "internalType": "string",
          "name": "description",
          "type": "string"
        }
      ],
      "name": "propose",
      "outputs": [
        {
          "internalType": "uint256",
          "name": "",
          "type": "uint256"
        }
      ],
      "stateMutability": "nonpayable",
      "type": "function"
    },
    {
      "inputs": [
        {
          "internalType": "address[]",
          "name": "targets",
          "type": "address[]"
        },
        {
          "internalType": "uint256[]",
          "name": "values",
          "type": "uint256[]"
        },
        {
          "internalType": "bytes[]",
          "name": "calldatas",
          "type": "bytes[]"
        },
        {
          "internalType": "bytes32",
          "name": "descriptionHash",
          "type": "bytes32"
        }
      ],
      "name": "queue",
      "outputs": [
        {
          "internalType": "uint256",
          "name": "",
          "type": "uint256"
        }
      ],
      "stateMutability": "nonpayable",
      "type": "function"
    },
    {
      "inputs": [
        {
          "internalType": "uint256",
          "name": "proposalId",
          "type": "uint256"
        }
      ],
      "name": "queue",
      "outputs": [],
      "stateMutability": "nonpayable",
      "type": "function"
    },
    {
      "inputs": [
        {
          "internalType": "uint256",
          "name": "timepoint",
          "type": "uint256"
        }
      ],
      "name": "quorum",
      "outputs": [
        {
          "internalType": "uint256",
          "name": "",
          "type": "uint256"
        }
      ],
      "stateMutability": "view",
      "type": "function"
    },
    {
      "inputs": [],
      "name": "quorumDenominator",
      "outputs": [
        {
          "internalType": "uint256",
          "name": "",
          "type": "uint256"
        }
      ],
      "stateMutability": "view",
      "type": "function"
    },
    {
      "inputs": [
        {
          "internalType": "uint256",
          "name": "timepoint",
          "type": "uint256"
        }
      ],
      "name": "quorumNumerator",
      "outputs": [
        {
          "internalType": "uint256",
          "name": "",
          "type": "uint256"
        }
      ],
      "stateMutability": "view",
      "type": "function"
    },
    {
      "inputs": [],
      "name": "quorumNumerator",
      "outputs": [
        {
          "internalType": "uint256",
          "name": "",
          "type": "uint256"
        }
      ],
      "stateMutability": "view",
      "type": "function"
    },
    {
      "inputs": [
        {
          "internalType": "address",
          "name": "target",
          "type": "address"
        },
        {
          "internalType": "uint256",
          "name": "value",
          "type": "uint256"
        },
        {
          "internalType": "bytes",
          "name": "data",
          "type": "bytes"
        }
      ],
      "name": "relay",
      "outputs": [],
      "stateMutability": "payable",
      "type": "function"
    },
    {
      "inputs": [
        {
          "internalType": "uint256",
          "name": "newProposalThreshold",
          "type": "uint256"
        }
      ],
      "name": "setProposalThreshold",
      "outputs": [],
      "stateMutability": "nonpayable",
      "type": "function"
    },
    {
      "inputs": [
        {
          "internalType": "uint48",
          "name": "newVotingDelay",
          "type": "uint48"
        }
      ],
      "name": "setVotingDelay",
      "outputs": [],
      "stateMutability": "nonpayable",
      "type": "function"
    },
    {
      "inputs": [
        {
          "internalType": "uint32",
          "name": "newVotingPeriod",
          "type": "uint32"
        }
      ],
      "name": "setVotingPeriod",
      "outputs": [],
      "stateMutability": "nonpayable",
      "type": "function"
    },
    {
      "inputs": [
        {
          "internalType": "uint256",
          "name": "proposalId",
          "type": "uint256"
        }
      ],
      "name": "state",
      "outputs": [
        {
          "internalType": "enum IGovernor.ProposalState",
          "name": "",
          "type": "uint8"
        }
      ],
      "stateMutability": "view",
      "type": "function"
    },
    {
      "inputs": [
        {
          "internalType": "bytes4",
          "name": "interfaceId",
          "type": "bytes4"
        }
      ],
      "name": "supportsInterface",
      "outputs": [
        {
          "internalType": "bool",
          "name": "",
          "type": "bool"
        }
      ],
      "stateMutability": "view",
      "type": "function"
    },
    {
      "inputs": [],
      "name": "timelock",
      "outputs": [
        {
          "internalType": "address",
          "name": "",
          "type": "address"
        }
      ],
      "stateMutability": "view",
      "type": "function"
    },
    {
      "inputs": [],
      "name": "token",
      "outputs": [
        {
          "internalType": "contract IERC5805",
          "name": "",
          "type": "address"
        }
      ],
      "stateMutability": "view",
      "type": "function"
    },
    {
      "inputs": [
        {
          "internalType": "uint256",
          "name": "newQuorumNumerator",
          "type": "uint256"
        }
      ],
      "name": "updateQuorumNumerator",
      "outputs": [],
      "stateMutability": "nonpayable",
      "type": "function"
    },
    {
      "inputs": [
        {
          "internalType": "contract TimelockController",
          "name": "newTimelock",
          "type": "address"
        }
      ],
      "name": "updateTimelock",
      "outputs": [],
      "stateMutability": "nonpayable",
      "type": "function"
    },
    {
      "inputs": [],
      "name": "version",
      "outputs": [
        {
          "internalType": "string",
          "name": "",
          "type": "string"
        }
      ],
      "stateMutability": "view",
      "type": "function"
    },
    {
      "inputs": [],
      "name": "votingDelay",
      "outputs": [
        {
          "internalType": "uint256",
          "name": "",
          "type": "uint256"
        }
      ],
      "stateMutability": "view",
      "type": "function"
    },
    {
      "inputs": [],
      "name": "votingPeriod",
      "outputs": [
        {
          "internalType": "uint256",
          "name": "",
          "type": "uint256"
        }
      ],
      "stateMutability": "view",
      "type": "function"
    },
    {
      "stateMutability": "payable",
      "type": "receive"
    }
  ],
  "bytecode": "0x610180604052348015610010575f5ffd5b5060405161591638038061591683398101604081905261002f91610720565b806004836201518062093a805f6040518060400160405280600b81526020016a2220a7a3b7bb32b93737b960a91b8152508061006f61017260201b60201c565b610079825f61018d565b6101205261008881600161018d565b61014052815160208084019190912060e052815190820120610100524660a05261011460e05161010051604080517f8b73c3c69bb8fe3d512ecc4cf759cc79239f7b179b0ffacaa9a75d522b39400f60208201529081019290925260608201524660808201523060a08201525f9060c00160405160208183030381529060405280519060200120905090565b60805250503060c052600361012982826107f0565b506101359050836101bf565b61013e82610225565b610147816102c9565b5050506001600160a01b0316610160526101608161030a565b5061016a8161039f565b505050610946565b6040805180820190915260018152603160f81b602082015290565b5f6020835110156101a8576101a183610408565b90506101b9565b816101b384826107f0565b5060ff90505b92915050565b6008546040805165ffffffffffff928316815291831660208301527fc565b045403dc03c2eea82b81a0465edad9e2e7fc4d97e11421c209da93d7a93910160405180910390a16008805465ffffffffffff191665ffffffffffff92909216919091179055565b8063ffffffff165f036102525760405163f1cfbf0560e01b81525f60048201526024015b60405180910390fd5b6008546040805163ffffffff66010000000000009093048316815291831660208301527f7e3f7f0708a84de9203036abaa450dccc85ad5ff52f78c170f3edb55cf5e8828910160405180910390a16008805463ffffffff90921666010000000000000263ffffffff60301b19909216919091179055565b60075460408051918252602082018390527fccb45da8d5717e6c4544694297c4ba5cf151d455c9bb0ed4fc7a38411bc05461910160405180910390a1600755565b6064808211156103375760405163243e544560e01b81526004810183905260248101829052604401610249565b5f610340610445565b905061035f61034d61045e565b610356856104d8565b600c919061050f565b505060408051828152602081018590527f0553476bf02ef2726e8ce5ced78d63e26e602e4a2257b1f559418e24b4633997910160405180910390a1505050565b600d54604080516001600160a01b03928316815291831660208301527f08f74ea46ef7894f65eabfb5e6e695de773a000b47c529ab559178069b226401910160405180910390a1600d80546001600160a01b0319166001600160a01b0392909216919091179055565b5f5f829050601f81511115610432578260405163305a27a960e01b815260040161024991906108aa565b805161043d826108df565b179392505050565b5f610450600c610529565b6001600160d01b0316905090565b5f6104696101605190565b6001600160a01b03166391ddadf46040518163ffffffff1660e01b8152600401602060405180830381865afa9250505080156104c2575060408051601f3d908101601f191682019092526104bf91810190610902565b60015b6104d3576104ce610571565b905090565b919050565b5f6001600160d01b0382111561050b576040516306dfcc6560e41b815260d0600482015260248101839052604401610249565b5090565b5f8061051c85858561057b565b915091505b935093915050565b80545f9080156105685761054f83610542600184610927565b5f91825260209091200190565b54660100000000000090046001600160d01b031661056a565b5f5b9392505050565b5f6104ce436106d7565b82545f908190801561067a575f61059787610542600185610927565b805490915065ffffffffffff80821691660100000000000090046001600160d01b03169088168211156105dd57604051632520601d60e01b815260040160405180910390fd5b8765ffffffffffff168265ffffffffffff160361061957825465ffffffffffff1666010000000000006001600160d01b0389160217835561066c565b6040805180820190915265ffffffffffff808a1682526001600160d01b03808a1660208085019182528d54600181018f555f8f815291909120945191519092166601000000000000029216919091179101555b945085935061052192505050565b50506040805180820190915265ffffffffffff80851682526001600160d01b0380851660208085019182528854600181018a555f8a8152918220955192519093166601000000000000029190931617920191909155905081610521565b5f65ffffffffffff82111561050b576040516306dfcc6560e41b81526030600482015260248101839052604401610249565b6001600160a01b038116811461071d575f5ffd5b50565b5f5f60408385031215610731575f5ffd5b825161073c81610709565b602084015190925061074d81610709565b809150509250929050565b634e487b7160e01b5f52604160045260245ffd5b600181811c9082168061078057607f821691505b60208210810361079e57634e487b7160e01b5f52602260045260245ffd5b50919050565b601f8211156107eb57805f5260205f20601f840160051c810160208510156107c95750805b601f840160051c820191505b818110156107e8575f81556001016107d5565b50505b505050565b81516001600160401b0381111561080957610809610758565b61081d81610817845461076c565b846107a4565b6020601f82116001811461084f575f83156108385750848201515b5f19600385901b1c1916600184901b1784556107e8565b5f84815260208120601f198516915b8281101561087e578785015182556020948501946001909201910161085e565b508482101561089b57868401515f19600387901b60f8161c191681555b50505050600190811b01905550565b602081525f82518060208401528060208501604085015e5f604082850101526040601f19601f83011684010191505092915050565b8051602080830151919081101561079e575f1960209190910360031b1b16919050565b5f60208284031215610912575f5ffd5b815165ffffffffffff8116811461056a575f5ffd5b818103818111156101b957634e487b7160e01b5f52601160045260245ffd5b60805160a05160c05160e05161010051610120516101405161016051614f596109bd5f395f8181610b16015281816113790152818161174601528181611bc7015261253201525f61247601525f61244a01525f61359d01525f61357501525f6134d001525f6134fa01525f6135240152614f595ff3fe608060405260043610610344575f3560e01c80637ecebe00116101bd578063c28bc2fa116100f2578063e540d01d11610092578063f23a6e611161006d578063f23a6e6114610aca578063f8ce560a14610ae9578063fc0c546a14610b08578063fe0d94c114610b3a575f5ffd5b8063e540d01d14610a6d578063eb9019d414610a8c578063ece40cc114610aab575f5ffd5b8063da35c664116100cd578063da35c664146109c2578063dd4e2ba5146109d6578063ddf0b00914610a1b578063deaaa7cc14610a3a575f5ffd5b8063c28bc2fa14610973578063c59057e414610986578063d33219b4146109a5575f5ffd5b8063a890c9101161015d578063ab58fb8e11610138578063ab58fb8e146108eb578063b58131b014610921578063bc197c8114610935578063c01f9e3714610954575f5ffd5b8063a890c9101461088e578063a8f8a668146108ad578063a9a95294146108cc575f5ffd5b806391ddadf41161019857806391ddadf41461081d57806397c3d334146108485780639a802a6d1461085b578063a7713a701461087a575f5ffd5b80637ecebe00146107a357806384b0196e146107d75780638ff262e3146107fe575f5ffd5b80633e4f49e611610293578063567813881161023357806360c4247f1161020e57806360c4247f1461072757806379051887146107465780637b3c71d3146107655780637d5e81e214610784575f5ffd5b806356781388146106ca5780635b8d0e0d146106e95780635f398a1414610708575f5ffd5b8063452115d61161026e578063452115d6146106345780634bf5d7e914610653578063544ffc9c1461066757806354fd4d50146106a1575f5ffd5b80633e4f49e6146105a157806340e58ee5146105cd57806343859632146105ec575f5ffd5b8063160cbed7116102fe5780632d63f693116102d95780632d63f693146105035780632e82db94146105225780632fe3e261146105525780633932abb114610585575f5ffd5b8063160cbed7146104a257806316e9eaec146104c15780632656227d146104f0575f5ffd5b806301ffc9a71461037f57806302a251a3146103b357806306f3f9e6146103de57806306fdde03146103fd578063143489d01461041e578063150b7a021461046a575f5ffd5b3661037b5730610352610b4d565b6001600160a01b03161461037957604051637485328f60e11b815260040160405180910390fd5b005b5f5ffd5b34801561038a575f5ffd5b5061039e610399366004613e3c565b610b65565b60405190151581526020015b60405180910390f35b3480156103be575f5ffd5b50600854600160301b900463ffffffff165b6040519081526020016103aa565b3480156103e9575f5ffd5b506103796103f8366004613e63565b610bd1565b348015610408575f5ffd5b50610411610be5565b6040516103aa9190613ea8565b348015610429575f5ffd5b50610452610438366004613e63565b5f908152600460205260409020546001600160a01b031690565b6040516001600160a01b0390911681526020016103aa565b348015610475575f5ffd5b50610489610484366004613f91565b610c75565b6040516001600160e01b031990911681526020016103aa565b3480156104ad575f5ffd5b506103d06104bc366004614157565b610cb7565b3480156104cc575f5ffd5b506104e06104db366004613e63565b610d83565b6040516103aa94939291906142b7565b6103d06104fe366004614157565b610f82565b34801561050e575f5ffd5b506103d061051d366004613e63565b6110ea565b34801561052d575f5ffd5b5061054161053c366004613e63565b61110a565b6040516103aa959493929190614301565b34801561055d575f5ffd5b506103d07f3e83946653575f9a39005e1545185629e92736b7528ab20ca3816f315424a81181565b348015610590575f5ffd5b5060085465ffffffffffff166103d0565b3480156105ac575f5ffd5b506105c06105bb366004613e63565b611149565b6040516103aa9190614386565b3480156105d8575f5ffd5b506103796105e7366004613e63565b611153565b3480156105f7575f5ffd5b5061039e610606366004614394565b5f8281526009602090815260408083206001600160a01b038516845260030190915290205460ff1692915050565b34801561063f575f5ffd5b506103d061064e366004614157565b611314565b34801561065e575f5ffd5b50610411611375565b348015610672575f5ffd5b50610686610681366004613e63565b611435565b604080519384526020840192909252908201526060016103aa565b3480156106ac575f5ffd5b506040805180820190915260018152603160f81b6020820152610411565b3480156106d5575f5ffd5b506103d06106e43660046143d2565b61145a565b3480156106f4575f5ffd5b506103d0610703366004614440565b611481565b348015610713575f5ffd5b506103d06107223660046144fc565b61153e565b348015610732575f5ffd5b506103d0610741366004613e63565b611586565b348015610751575f5ffd5b50610379610760366004614590565b611592565b348015610770575f5ffd5b506103d061077f3660046145ab565b6115a3565b34801561078f575f5ffd5b506103d061079e366004614600565b6115f3565b3480156107ae575f5ffd5b506103d06107bd3660046146bc565b6001600160a01b03165f9081526002602052604090205490565b3480156107e2575f5ffd5b506107eb6116a9565b6040516103aa97969594939291906146d7565b348015610809575f5ffd5b506103d0610818366004614746565b6116eb565b348015610828575f5ffd5b50610831611743565b60405165ffffffffffff90911681526020016103aa565b348015610853575f5ffd5b5060646103d0565b348015610866575f5ffd5b506103d0610875366004614793565b6117ca565b348015610885575f5ffd5b506103d06117e0565b348015610899575f5ffd5b506103796108a83660046146bc565b6117f9565b3480156108b8575f5ffd5b506103d06108c7366004614157565b61180a565b3480156108d7575f5ffd5b5061039e6108e6366004613e63565b611817565b3480156108f6575f5ffd5b506103d0610905366004613e63565b5f9081526004602052604090206001015465ffffffffffff1690565b34801561092c575f5ffd5b506103d061181f565b348015610940575f5ffd5b5061048961094f3660046147e7565b611829565b34801561095f575f5ffd5b506103d061096e366004613e63565b61186c565b61037961098136600461487e565b6118ae565b348015610991575f5ffd5b506103d06109a0366004614157565b61192a565b3480156109b0575f5ffd5b50600d546001600160a01b0316610452565b3480156109cd575f5ffd5b50600a546103d0565b3480156109e1575f5ffd5b506040805180820190915260208082527f737570706f72743d627261766f2671756f72756d3d666f722c6162737461696e90820152610411565b348015610a26575f5ffd5b50610379610a35366004613e63565b611963565b348015610a45575f5ffd5b506103d07ff2aad550cf55f045cb27e9c559f9889fdfb6e6cdaa032301d6ea397784ae51d781565b348015610a78575f5ffd5b50610379610a873660046148bd565b611b1f565b348015610a97575f5ffd5b506103d0610aa63660046148e0565b611b30565b348015610ab6575f5ffd5b50610379610ac5366004613e63565b611b4f565b348015610ad5575f5ffd5b50610489610ae436600461490a565b611b60565b348015610af4575f5ffd5b506103d0610b03366004613e63565b611ba3565b348015610b13575f5ffd5b507f0000000000000000000000000000000000000000000000000000000000000000610452565b610379610b48366004613e63565b611c40565b5f610b60600d546001600160a01b031690565b905090565b5f6001600160e01b031982166366defe7760e11b1480610b9557506001600160e01b031982166332a2ad4360e11b145b80610bb057506001600160e01b03198216630271189760e51b145b80610bcb57506301ffc9a760e01b6001600160e01b03198316145b92915050565b610bd9611dfc565b610be281611e75565b50565b606060038054610bf490614961565b80601f0160208091040260200160405190810160405280929190818152602001828054610c2090614961565b8015610c6b5780601f10610c4257610100808354040283529160200191610c6b565b820191905f5260205f20905b815481529060010190602001808311610c4e57829003601f168201915b5050505050905090565b5f30610c7f610b4d565b6001600160a01b031614610ca657604051637485328f60e11b815260040160405180910390fd5b50630a85bd0160e11b949350505050565b5f5f610cc58686868661180a565b9050610cda81610cd56004611f0a565b611f2c565b505f610ce98288888888611f69565b905065ffffffffffff811615610d60575f82815260046020908152604091829020600101805465ffffffffffff191665ffffffffffff85169081179091558251858152918201527f9a2e42fd6722813d69113e7d0079d3d940171428df7373df9c7f7617cfda2892910160405180910390a1610d79565b604051634844252360e11b815260040160405180910390fd5b5095945050505050565b5f818152600b602090815260408083208151815460a0948102820185019093526080810183815260609586958695919485949390928492849190840182828015610df457602002820191905f5260205f20905b81546001600160a01b03168152600190910190602001808311610dd6575b5050505050815260200160018201805480602002602001604051908101604052809291908181526020018280548015610e4a57602002820191905f5260205f20905b815481526020019060010190808311610e36575b5050505050815260200160028201805480602002602001604051908101604052809291908181526020015f905b82821015610f1f578382905f5260205f20018054610e9490614961565b80601f0160208091040260200160405190810160405280929190818152602001828054610ec090614961565b8015610f0b5780601f10610ee257610100808354040283529160200191610f0b565b820191905f5260205f20905b815481529060010190602001808311610eee57829003601f168201915b505050505081526020019060010190610e77565b505050508152602001600382015481525050905080606001515f5f1b03610f6157604051636ad0607560e01b8152600481018790526024015b60405180910390fd5b80516020820151604083015160609093015191989097509195509350915050565b5f5f610f908686868661180a565b9050610fb081610fa06005611f0a565b610faa6004611f0a565b17611f2c565b505f818152600460205260409020805460ff60f01b1916600160f01b17905530610fd8610b4d565b6001600160a01b031614611061575f5b865181101561105f57306001600160a01b031687828151811061100d5761100d614999565b60200260200101516001600160a01b0316036110575761105785828151811061103857611038614999565b6020026020010151805190602001206005611f7790919063ffffffff16565b600101610fe8565b505b61106e8187878787611f93565b30611077610b4d565b6001600160a01b0316141580156110a357506005546001600160801b03808216600160801b9092041614155b156110ad575f6005555b6040518181527f712ae1383f79ac853f8d882153778e0260ef8f03b504e2866e0593e04d2b291f906020015b60405180910390a195945050505050565b5f90815260046020526040902054600160a01b900465ffffffffffff1690565b5f60608060605f600a868154811061112457611124614999565b905f5260205f200154945061113885610d83565b979992985090969095509350915050565b5f610bcb82611fa7565b5f818152600b60205260408120600381015490910361118857604051636ad0607560e01b815260048101839052602401610f58565b61130f815f018054806020026020016040519081016040528092919081815260200182805480156111e057602002820191905f5260205f20905b81546001600160a01b031681526001909101906020018083116111c2575b50505050508260010180548060200260200160405190810160405280929190818152602001828054801561123157602002820191905f5260205f20905b81548152602001906001019080831161121d575b505050505083600201805480602002602001604051908101604052809291908181526020015f905b82821015611301578382905f5260205f2001805461127690614961565b80601f01602080910402602001604051908101604052809291908181526020018280546112a290614961565b80156112ed5780601f106112c4576101008083540402835291602001916112ed565b820191905f5260205f20905b8154815290600101906020018083116112d057829003601f168201915b505050505081526020019060010190611259565b505050508460030154611314565b505050565b5f5f6113228686868661180a565b90503361132f82826120e0565b61135e57604051638fe5d8a960e01b8152600481018390526001600160a01b0382166024820152604401610f58565b61136a87878787612125565b979650505050505050565b60607f00000000000000000000000000000000000000000000000000000000000000006001600160a01b0316634bf5d7e96040518163ffffffff1660e01b81526004015f60405180830381865afa9250505080156113f457506040513d5f823e601f3d908101601f191682016040526113f191908101906149ad565b60015b611430575060408051808201909152601d81527f6d6f64653d626c6f636b6e756d6265722666726f6d3d64656661756c74000000602082015290565b919050565b5f818152600960205260409020805460018201546002909201549091905b9193909250565b5f8033905061147984828560405180602001604052805f815250612132565b949350505050565b5f6114c788888888888080601f0160208091040260200160405190810160405280939291908181526020018383808284375f920191909152508a92508991506121539050565b6114ef576040516394ab6c0760e01b81526001600160a01b0387166004820152602401610f58565b61153288878988888080601f0160208091040260200160405190810160405280939291908181526020018383808284375f920191909152508a9250612220915050565b98975050505050505050565b5f8033905061136a87828888888080601f0160208091040260200160405190810160405280939291908181526020018383808284375f920191909152508a9250612220915050565b5f610bcb600c836122fe565b61159a611dfc565b610be28161234b565b5f803390506115e986828787878080601f0160208091040260200160405190810160405280939291908181526020018383808284375f9201919091525061213292505050565b9695505050505050565b5f336115ff81846123b1565b6116275760405163d9b3955760e01b81526001600160a01b0382166004820152602401610f58565b5f61163061181f565b9050801561169c575f61165e836001611647611743565b6116519190614a35565b65ffffffffffff16611b30565b90508181101561169a57604051636121770b60e11b81526001600160a01b03841660048201526024810182905260448101839052606401610f58565b505b61136a8787878786612435565b5f6060805f5f5f60606116ba612443565b6116c261246f565b604080515f80825260208201909252600f60f81b9b939a50919850469750309650945092509050565b5f6116f88585858561249c565b611720576040516394ab6c0760e01b81526001600160a01b0384166004820152602401610f58565b61173a85848660405180602001604052805f815250612132565b95945050505050565b5f7f00000000000000000000000000000000000000000000000000000000000000006001600160a01b03166391ddadf46040518163ffffffff1660e01b8152600401602060405180830381865afa9250505080156117be575060408051601f3d908101601f191682019092526117bb91810190614a53565b60015b61143057610b60612525565b5f6117d684848461252f565b90505b9392505050565b5f6117eb600c6125c2565b6001600160d01b0316905090565b611801611dfc565b610be281612606565b5f61173a8585858561192a565b5f6001610bcb565b5f610b6060075490565b5f30611833610b4d565b6001600160a01b03161461185a57604051637485328f60e11b815260040160405180910390fd5b5063bc197c8160e01b95945050505050565b5f818152600460205260408120546118a090600160d01b810463ffffffff1690600160a01b900465ffffffffffff16614a6e565b65ffffffffffff1692915050565b6118b6611dfc565b5f5f856001600160a01b03168585856040516118d3929190614a8c565b5f6040518083038185875af1925050503d805f811461190d576040519150601f19603f3d011682016040523d82523d5f602084013e611912565b606091505b5091509150611921828261266f565b50505050505050565b5f8484848460405160200161194294939291906142b7565b60408051601f19818403018152919052805160209091012095945050505050565b5f818152600b60205260408120600381015490910361199857604051636ad0607560e01b815260048101839052602401610f58565b61130f815f018054806020026020016040519081016040528092919081815260200182805480156119f057602002820191905f5260205f20905b81546001600160a01b031681526001909101906020018083116119d2575b505050505082600101805480602002602001604051908101604052809291908181526020018280548015611a4157602002820191905f5260205f20905b815481526020019060010190808311611a2d575b505050505083600201805480602002602001604051908101604052809291908181526020015f905b82821015611b11578382905f5260205f20018054611a8690614961565b80601f0160208091040260200160405190810160405280929190818152602001828054611ab290614961565b8015611afd5780601f10611ad457610100808354040283529160200191611afd565b820191905f5260205f20905b815481529060010190602001808311611ae057829003601f168201915b505050505081526020019060010190611a69565b505050508460030154610cb7565b611b27611dfc565b610be2816126ac565b5f6117d98383611b4a60408051602081019091525f815290565b61252f565b611b57611dfc565b610be281612748565b5f30611b6a610b4d565b6001600160a01b031614611b9157604051637485328f60e11b815260040160405180910390fd5b5063f23a6e6160e01b95945050505050565b604051632394e7a360e21b8152600481018290525f90610bcb906001600160a01b037f00000000000000000000000000000000000000000000000000000000000000001690638e539e8c90602401602060405180830381865afa158015611c0c573d5f5f3e3d5ffd5b505050506040513d601f19601f82011682018060405250810190611c309190614a9b565b611c3984611586565b6064612789565b5f818152600b602052604081206003810154909103611c7557604051636ad0607560e01b815260048101839052602401610f58565b61130f815f01805480602002602001604051908101604052809291908181526020018280548015611ccd57602002820191905f5260205f20905b81546001600160a01b03168152600190910190602001808311611caf575b505050505082600101805480602002602001604051908101604052809291908181526020018280548015611d1e57602002820191905f5260205f20905b815481526020019060010190808311611d0a575b505050505083600201805480602002602001604051908101604052809291908181526020015f905b82821015611dee578382905f5260205f20018054611d6390614961565b80601f0160208091040260200160405190810160405280929190818152602001828054611d8f90614961565b8015611dda5780601f10611db157610100808354040283529160200191611dda565b820191905f5260205f20905b815481529060010190602001808311611dbd57829003601f168201915b505050505081526020019060010190611d46565b505050508460030154610f82565b33611e05610b4d565b6001600160a01b031614611e2e576040516347096e4760e01b8152336004820152602401610f58565b30611e37610b4d565b6001600160a01b031614611e73575f8036604051611e56929190614a8c565b604051809103902090505b80611e6c6005612839565b03611e6157505b565b606480821115611ea25760405163243e544560e01b81526004810183905260248101829052604401610f58565b5f611eab6117e0565b9050611eca611eb8611743565b611ec185612858565b600c919061288f565b505060408051828152602081018590527f0553476bf02ef2726e8ce5ced78d63e26e602e4a2257b1f559418e24b4633997910160405180910390a1505050565b5f816007811115611f1d57611f1d614352565b600160ff919091161b92915050565b5f5f611f3784611149565b90505f83611f4483611f0a565b16036117d9578381846040516331b75e4d60e01b8152600401610f5893929190614ab2565b5f6115e986868686866128a9565b5f611f828383612a3a565b90508061130f5761130f6041612a9f565b611fa08585858585612ab0565b5050505050565b5f5f611fb283612b40565b90506005816007811115611fc857611fc8614352565b14611fd35792915050565b5f838152600e60205260409081902054600d549151632c258a9f60e11b81526004810182905290916001600160a01b03169063584b153e90602401602060405180830381865afa158015612029573d5f5f3e3d5ffd5b505050506040513d601f19601f8201168201806040525081019061204d9190614ad4565b1561205c575060059392505050565b600d54604051632ab0f52960e01b8152600481018390526001600160a01b0390911690632ab0f52990602401602060405180830381865afa1580156120a3573d5f5f3e3d5ffd5b505050506040513d601f19601f820116820180604052508101906120c79190614ad4565b156120d6575060079392505050565b5060029392505050565b5f806120eb84611149565b60078111156120fc576120fc614352565b1480156117d95750505f91825260046020526040909120546001600160a01b0391821691161490565b5f61173a85858585612c71565b5f61173a8585858561214e60408051602081019091525f815290565b612220565b5f61136a8561221a7f3e83946653575f9a39005e1545185629e92736b7528ab20ca3816f315424a8118a8a8a6121a58c6001600160a01b03165f90815260026020526040902080546001810190915590565b8b516020808e01919091208c518d8301206040516121ff98979695949301968752602087019590955260ff9390931660408601526001600160a01b03919091166060850152608084015260a083015260c082015260e00190565b60405160208183030381529060405280519060200120612d08565b84612d34565b5f61222f86610cd56001611f0a565b505f6122448661223e896110ea565b8561252f565b90505f6122548888888588612da4565b905083515f036122aa57866001600160a01b03167fb8e138887d0aa13bab447e82de9d5c1777041ecd21ca36ba824ff1e6c07ddda48988848960405161229d9493929190614af3565b60405180910390a261136a565b866001600160a01b03167fe2babfbac5889a709b63bb7f598b324e08bc5a4fb9ec647fb3cbc9ec07eb871289888489896040516122eb959493929190614b1a565b60405180910390a2979650505050505050565b5f5f5f61230a85612ea0565b9250925050838265ffffffffffff1611156123375761233261232b85612ef8565b8690612f2a565b612339565b805b6001600160d01b031695945050505050565b6008546040805165ffffffffffff928316815291831660208301527fc565b045403dc03c2eea82b81a0465edad9e2e7fc4d97e11421c209da93d7a93910160405180910390a16008805465ffffffffffff191665ffffffffffff92909216919091179055565b80515f9060348110156123c8576001915050610bcb565b60131981840101516001600160b01b03198116692370726f706f7365723d60b01b146123f957600192505050610bcb565b5f5f61240986602a860386612fcc565b9150915081158061136a5750866001600160a01b0316816001600160a01b031614979650505050505050565b5f6115e98686868686613075565b6060610b607f00000000000000000000000000000000000000000000000000000000000000005f61314e565b6060610b607f0000000000000000000000000000000000000000000000000000000000000000600161314e565b5f61173a8361221a7ff2aad550cf55f045cb27e9c559f9889fdfb6e6cdaa032301d6ea397784ae51d78888886124ee8a6001600160a01b03165f90815260026020526040902080546001810190915590565b60408051602081019690965285019390935260ff90911660608401526001600160a01b0316608083015260a082015260c0016121ff565b5f610b6043612ef8565b5f7f0000000000000000000000000000000000000000000000000000000000000000604051630748d63560e31b81526001600160a01b038681166004830152602482018690529190911690633a46b1a890604401602060405180830381865afa15801561259e573d5f5f3e3d5ffd5b505050506040513d601f19601f820116820180604052508101906117d69190614a9b565b80545f9080156125fe576125e8836125db600184614b53565b5f91825260209091200190565b54600160301b90046001600160d01b03166117d9565b5f9392505050565b600d54604080516001600160a01b03928316815291831660208301527f08f74ea46ef7894f65eabfb5e6e695de773a000b47c529ab559178069b226401910160405180910390a1600d80546001600160a01b0319166001600160a01b0392909216919091179055565b6060821561267e575080610bcb565b8151156126935761268e826131f7565b610bcb565b60405163d6bda27560e01b815260040160405180910390fd5b8063ffffffff165f036126d45760405163f1cfbf0560e01b81525f6004820152602401610f58565b6008546040805163ffffffff600160301b9093048316815291831660208301527f7e3f7f0708a84de9203036abaa450dccc85ad5ff52f78c170f3edb55cf5e8828910160405180910390a16008805463ffffffff909216600160301b0269ffffffff00000000000019909216919091179055565b60075460408051918252602082018390527fccb45da8d5717e6c4544694297c4ba5cf151d455c9bb0ed4fc7a38411bc05461910160405180910390a1600755565b5f5f5f61279686866131ff565b91509150815f036127ba578381816127b0576127b0614b66565b04925050506117d9565b8184116127d1576127d16003851502601118612a9f565b5f848688095f868103871696879004966002600389028118808a02820302808a02820302808a02820302808a02820302808a02820302808a02909103029181900381900460010185841190960395909502919093039390930492909217029150509392505050565b5f5f5f6128458461321b565b91509150816117d9576117d96031612a9f565b5f6001600160d01b0382111561288b576040516306dfcc6560e41b815260d0600482015260248101839052604401610f58565b5090565b5f8061289c85858561328f565b915091505b935093915050565b5f5f600d5f9054906101000a90046001600160a01b03166001600160a01b031663f27a0c926040518163ffffffff1660e01b8152600401602060405180830381865afa1580156128fb573d5f5f3e3d5ffd5b505050506040513d601f19601f8201168201806040525081019061291f9190614a9b565b90505f3060601b6bffffffffffffffffffffffff19168418600d5460405163b1c5f42760e01b81529192506001600160a01b03169063b1c5f42790612970908a908a908a905f908890600401614b7a565b602060405180830381865afa15801561298b573d5f5f3e3d5ffd5b505050506040513d601f19601f820116820180604052508101906129af9190614a9b565b5f898152600e602052604080822092909255600d5491516308f2a0bb60e41b81526001600160a01b0390921691638f2a0bb0916129f9918b918b918b919088908a90600401614bc7565b5f604051808303815f87803b158015612a10575f5ffd5b505af1158015612a22573d5f5f3e3d5ffd5b505050506115328242612a359190614c1e565b612ef8565b81545f906001600160801b03600160801b820481169181166001830190911603612a67575f915050610bcb565b6001600160801b038181165f908152600186810160205260409091209490945584549184018116600160801b02911617909255919050565b634e487b715f52806020526024601cfd5b600d546001600160a01b031663e38335e5348686865f3060601b6bffffffffffffffffffffffff191688186040518763ffffffff1660e01b8152600401612afb959493929190614b7a565b5f604051808303818588803b158015612b12575f5ffd5b505af1158015612b24573d5f5f3e3d5ffd5b5050505f9687525050600e602052505060408320929092555050565b5f818152600460205260408120805460ff600160f01b8204811691600160f81b9004168115612b7457506007949350505050565b8015612b8557506002949350505050565b5f612b8f866110ea565b9050805f03612bb457604051636ad0607560e01b815260048101879052602401610f58565b5f612bbd611743565b65ffffffffffff169050808210612bda57505f9695505050505050565b5f612be48861186c565b9050818110612bfb57506001979650505050505050565b612c04886133df565b1580612c2357505f888152600960205260409020805460019091015411155b15612c3657506003979650505050505050565b5f8881526004602052604090206001015465ffffffffffff165f03612c6357506004979650505050505050565b506005979650505050505050565b5f5f612c7f86868686613415565b5f818152600e60205260409020549091508015610d7957600d5460405163c4d252f560e01b8152600481018390526001600160a01b039091169063c4d252f5906024015f604051808303815f87803b158015612cd9575f5ffd5b505af1158015612ceb573d5f5f3e3d5ffd5b5050505f838152600e602052604081205550509050949350505050565b5f610bcb612d146134c4565b8360405161190160f01b8152600281019290925260228201526042902090565b5f836001600160a01b03163b5f03612d92575f5f612d5285856135ed565b5090925090505f816003811115612d6b57612d6b614352565b148015612d895750856001600160a01b0316826001600160a01b0316145b925050506117d9565b612d9d848484613636565b90506117d9565b5f8581526009602090815260408083206001600160a01b03881684526003810190925282205460ff1615612df6576040516371c6af4960e01b81526001600160a01b0387166004820152602401610f58565b6001600160a01b0386165f9081526003820160205260409020805460ff1916600117905560ff8516612e3f5783815f015f828254612e349190614c1e565b90915550612e959050565b5f1960ff861601612e5d5783816001015f828254612e349190614c1e565b60011960ff861601612e7c5783816002015f828254612e349190614c1e565b6040516303599be160e11b815260040160405180910390fd5b509195945050505050565b80545f9081908190808203612ebe575f5f5f93509350935050611453565b5f612ece866125db600185614b53565b546001955065ffffffffffff81169450600160301b90046001600160d01b03169250611453915050565b5f65ffffffffffff82111561288b576040516306dfcc6560e41b81526030600482015260248101839052604401610f58565b81545f9081816005811115612f86575f612f4384613687565b612f4d9085614b53565b5f8881526020902090915081015465ffffffffffff9081169087161015612f7657809150612f84565b612f81816001614c1e565b92505b505b5f612f93878785856137df565b90508015612fc057612faa876125db600184614b53565b54600160301b90046001600160d01b031661136a565b505f9695505050505050565b5f5f8451831180612fdc57508284115b15612feb57505f9050806128a1565b5f612ff7856001614c1e565b8411801561301f575061060f60f31b6130138787016020015190565b6001600160f01b031916145b90505f61302f8215156002614c31565b61303a906028614c1e565b9050806130478787614b53565b03613068575f5f613059898989613835565b90965094506128a19350505050565b5f5f9350935050506128a1565b5f5f61308487878787876138f6565b600a80546001810182555f9182527fc65a7bb8d6351c1cf70c95a316cc6a92839c986682d98bc35f958f4883f9d2a801829055604080516080810182528a815260208181018b90528183018a90528851898201206060830152848452600b8152919092208251805194955092939092613101928492910190613ced565b50602082810151805161311a9260018501920190613d4c565b5060408201518051613136916002840191602090910190613d85565b50606091909101516003909101559695505050505050565b606060ff83146131685761316183613b19565b9050610bcb565b81805461317490614961565b80601f01602080910402602001604051908101604052809291908181526020018280546131a090614961565b80156131eb5780601f106131c2576101008083540402835291602001916131eb565b820191905f5260205f20905b8154815290600101906020018083116131ce57829003601f168201915b50505050509050610bcb565b805160208201fd5b5f805f1983850993909202808410938190039390930393915050565b80545f9081906001600160801b0380821691600160801b900416810361324657505f93849350915050565b6001600160801b038181165f908152600186810160205260408220805492905586546fffffffffffffffffffffffffffffffff1916938101909216929092179094559293915050565b82545f9081908015613385575f6132ab876125db600185614b53565b805490915065ffffffffffff80821691600160301b90046001600160d01b03169088168211156132ee57604051632520601d60e01b815260040160405180910390fd5b8765ffffffffffff168265ffffffffffff160361332757825465ffffffffffff16600160301b6001600160d01b03891602178355613377565b6040805180820190915265ffffffffffff808a1682526001600160d01b03808a1660208085019182528d54600181018f555f8f81529190912094519151909216600160301b029216919091179101555b94508593506128a192505050565b50506040805180820190915265ffffffffffff80851682526001600160d01b0380851660208085019182528854600181018a555f8a815291822095519251909316600160301b0291909316179201919091559050816128a1565b5f818152600960205260408120600281015460018201546134009190614c1e565b61340c610b03856110ea565b11159392505050565b5f5f6134238686868661180a565b9050613471816134336007611f0a565b61343d6006611f0a565b6134476002611f0a565b6001613454600782614c48565b61345f906002614d3c565b6134699190614b53565b181818611f2c565b505f818152600460205260409081902080546001600160f81b0316600160f81b179055517f789cf55be980739dad1d0699b93b58e806b51c9d96619bfa8fe0a28abaa7b30c906110d99083815260200190565b5f306001600160a01b037f00000000000000000000000000000000000000000000000000000000000000001614801561351c57507f000000000000000000000000000000000000000000000000000000000000000046145b1561354657507f000000000000000000000000000000000000000000000000000000000000000090565b610b60604080517f8b73c3c69bb8fe3d512ecc4cf759cc79239f7b179b0ffacaa9a75d522b39400f60208201527f0000000000000000000000000000000000000000000000000000000000000000918101919091527f000000000000000000000000000000000000000000000000000000000000000060608201524660808201523060a08201525f9060c00160405160208183030381529060405280519060200120905090565b5f5f5f8351604103613624576020840151604085015160608601515f1a61361688828585613b56565b95509550955050505061362f565b505081515f91506002905b9250925092565b805160408051630b135d3f60e11b8082526004820186905260248201929092525f92906020820185604483015e60205f60648401838a5afa9050825f5114601f3d1116811693505050509392505050565b5f60018211613694575090565b816001600160801b82106136ad5760809190911c9060401b5b6801000000000000000082106136c85760409190911c9060201b5b64010000000082106136df5760209190911c9060101b5b6201000082106136f45760109190911c9060081b5b61010082106137085760089190911c9060041b5b6010821061371b5760049190911c9060021b5b600482106137275760011b5b600302600190811c9081858161373f5761373f614b66565b048201901c9050600181858161375757613757614b66565b048201901c9050600181858161376f5761376f614b66565b048201901c9050600181858161378757613787614b66565b048201901c9050600181858161379f5761379f614b66565b048201901c905060018185816137b7576137b7614b66565b048201901c90506137d68185816137d0576137d0614b66565b04821190565b90039392505050565b5f5b8183101561382d575f85815260209020838316600285851804019081015465ffffffffffff8681169116111561381957809250613827565b613824816001614c1e565b93505b506137e1565b509392505050565b5f808481613844866001614c1e565b8511801561386c575061060f60f31b6138608388016020015190565b6001600160f01b031916145b90505f61387c8215156002614c31565b90505f8061388a838a614c1e565b90505b878110156138e5575f6138ab6138a68784016020015190565b613c1e565b9050600f8160ff1611156138ca575f5f975097505050505050506128a1565b6138d5601084614c31565b60ff90911601915060010161388d565b506001999098509650505050505050565b5f61390a868686868051906020012061180a565b90508451865114158061391f57508351865114155b8061392957508551155b1561395e57855184518651604051630447b05d60e41b8152600481019390935260248301919091526044820152606401610f58565b5f81815260046020526040902054600160a01b900465ffffffffffff16156139a7578061398a82611149565b6040516331b75e4d60e01b8152610f589291905f90600401614ab2565b5f6139b960085465ffffffffffff1690565b6139c1611743565b65ffffffffffff166139d39190614c1e565b90505f6139ed60085463ffffffff600160301b9091041690565b5f84815260046020526040902080546001600160a01b0319166001600160a01b038716178155909150613a1f83612ef8565b815465ffffffffffff91909116600160a01b0265ffffffffffff60a01b19909116178155613a4c82613c96565b815463ffffffff91909116600160d01b0263ffffffff60d01b1990911617815588517f7d84a6263ae0d98d3329bd7b46bb4e8d6f98cd35a7adb45c274c8b7fd5ebd5e090859087908c908c906001600160401b03811115613aaf57613aaf613ece565b604051908082528060200260200182016040528015613ae257816020015b6060815260200190600190039081613acd5790505b508c89613aef8a82614c1e565b8e604051613b0599989796959493929190614d4a565b60405180910390a150505095945050505050565b60605f613b2583613cc6565b6040805160208082528183019092529192505f91906020820181803683375050509182525060208101929092525090565b5f80807f7fffffffffffffffffffffffffffffff5d576e7357a4501ddfe92f46681b20a0841115613b8f57505f91506003905082613c14565b604080515f808252602082018084528a905260ff891692820192909252606081018790526080810186905260019060a0016020604051602081039080840390855afa158015613be0573d5f5f3e3d5ffd5b5050604051601f1901519150506001600160a01b038116613c0b57505f925060019150829050613c14565b92505f91508190505b9450945094915050565b5f60f882901c602f81118015613c375750603a8160ff16105b15613c4557602f1901610bcb565b60608160ff16118015613c5b575060678160ff16105b15613c695760561901610bcb565b60408160ff16118015613c7f575060478160ff16105b15613c8d5760361901610bcb565b5060ff92915050565b5f63ffffffff82111561288b576040516306dfcc6560e41b81526020600482015260248101839052604401610f58565b5f60ff8216601f811115610bcb57604051632cd44ac360e21b815260040160405180910390fd5b828054828255905f5260205f20908101928215613d40579160200282015b82811115613d4057825182546001600160a01b0319166001600160a01b03909116178255602090920191600190910190613d0b565b5061288b929150613dd5565b828054828255905f5260205f20908101928215613d40579160200282015b82811115613d40578251825591602001919060010190613d6a565b828054828255905f5260205f20908101928215613dc9579160200282015b82811115613dc95782518290613db99082614e69565b5091602001919060010190613da3565b5061288b929150613de9565b5b8082111561288b575f8155600101613dd6565b8082111561288b575f613dfc8282613e05565b50600101613de9565b508054613e1190614961565b5f825580601f10613e20575050565b601f0160209004905f5260205f2090810190610be29190613dd5565b5f60208284031215613e4c575f5ffd5b81356001600160e01b0319811681146117d9575f5ffd5b5f60208284031215613e73575f5ffd5b5035919050565b5f81518084528060208401602086015e5f602082860101526020601f19601f83011685010191505092915050565b602081525f6117d96020830184613e7a565b6001600160a01b0381168114610be2575f5ffd5b634e487b7160e01b5f52604160045260245ffd5b604051601f8201601f191681016001600160401b0381118282101715613f0a57613f0a613ece565b604052919050565b5f6001600160401b03821115613f2a57613f2a613ece565b50601f01601f191660200190565b5f613f4a613f4584613f12565b613ee2565b9050828152838383011115613f5d575f5ffd5b828260208301375f602084830101529392505050565b5f82601f830112613f82575f5ffd5b6117d983833560208501613f38565b5f5f5f5f60808587031215613fa4575f5ffd5b8435613faf81613eba565b93506020850135613fbf81613eba565b92506040850135915060608501356001600160401b03811115613fe0575f5ffd5b613fec87828801613f73565b91505092959194509250565b5f6001600160401b0382111561401057614010613ece565b5060051b60200190565b5f82601f830112614029575f5ffd5b8135614037613f4582613ff8565b8082825260208201915060208360051b860101925085831115614058575f5ffd5b602085015b83811015610d7957803561407081613eba565b83526020928301920161405d565b5f82601f83011261408d575f5ffd5b813561409b613f4582613ff8565b8082825260208201915060208360051b8601019250858311156140bc575f5ffd5b602085015b83811015610d795780358352602092830192016140c1565b5f82601f8301126140e8575f5ffd5b81356140f6613f4582613ff8565b8082825260208201915060208360051b860101925085831115614117575f5ffd5b602085015b83811015610d795780356001600160401b03811115614139575f5ffd5b614148886020838a0101613f73565b8452506020928301920161411c565b5f5f5f5f6080858703121561416a575f5ffd5b84356001600160401b0381111561417f575f5ffd5b61418b8782880161401a565b94505060208501356001600160401b038111156141a6575f5ffd5b6141b28782880161407e565b93505060408501356001600160401b038111156141cd575f5ffd5b6141d9878288016140d9565b949793965093946060013593505050565b5f8151808452602084019350602083015f5b828110156142235781516001600160a01b03168652602095860195909101906001016141fc565b5093949350505050565b5f8151808452602084019350602083015f5b8281101561422357815186526020958601959091019060010161423f565b5f82825180855260208501945060208160051b830101602085015f5b838110156142ab57601f19858403018852614295838351613e7a565b6020988901989093509190910190600101614279565b50909695505050505050565b608081525f6142c960808301876141ea565b82810360208401526142db818761422d565b905082810360408401526142ef818661425d565b91505082606083015295945050505050565b85815260a060208201525f61431960a08301876141ea565b828103604084015261432b818761422d565b9050828103606084015261433f818661425d565b9150508260808301529695505050505050565b634e487b7160e01b5f52602160045260245ffd5b6008811061438257634e487b7160e01b5f52602160045260245ffd5b9052565b60208101610bcb8284614366565b5f5f604083850312156143a5575f5ffd5b8235915060208301356143b781613eba565b809150509250929050565b803560ff81168114611430575f5ffd5b5f5f604083850312156143e3575f5ffd5b823591506143f3602084016143c2565b90509250929050565b5f5f83601f84011261440c575f5ffd5b5081356001600160401b03811115614422575f5ffd5b602083019150836020828501011115614439575f5ffd5b9250929050565b5f5f5f5f5f5f5f60c0888a031215614456575f5ffd5b87359650614466602089016143c2565b9550604088013561447681613eba565b945060608801356001600160401b03811115614490575f5ffd5b61449c8a828b016143fc565b90955093505060808801356001600160401b038111156144ba575f5ffd5b6144c68a828b01613f73565b92505060a08801356001600160401b038111156144e1575f5ffd5b6144ed8a828b01613f73565b91505092959891949750929550565b5f5f5f5f5f60808688031215614510575f5ffd5b85359450614520602087016143c2565b935060408601356001600160401b0381111561453a575f5ffd5b614546888289016143fc565b90945092505060608601356001600160401b03811115614564575f5ffd5b61457088828901613f73565b9150509295509295909350565b65ffffffffffff81168114610be2575f5ffd5b5f602082840312156145a0575f5ffd5b81356117d98161457d565b5f5f5f5f606085870312156145be575f5ffd5b843593506145ce602086016143c2565b925060408501356001600160401b038111156145e8575f5ffd5b6145f4878288016143fc565b95989497509550505050565b5f5f5f5f60808587031215614613575f5ffd5b84356001600160401b03811115614628575f5ffd5b6146348782880161401a565b94505060208501356001600160401b0381111561464f575f5ffd5b61465b8782880161407e565b93505060408501356001600160401b03811115614676575f5ffd5b614682878288016140d9565b92505060608501356001600160401b0381111561469d575f5ffd5b8501601f810187136146ad575f5ffd5b613fec87823560208401613f38565b5f602082840312156146cc575f5ffd5b81356117d981613eba565b60ff60f81b8816815260e060208201525f6146f560e0830189613e7a565b82810360408401526147078189613e7a565b606084018890526001600160a01b038716608085015260a0840186905283810360c08501529050614738818561422d565b9a9950505050505050505050565b5f5f5f5f60808587031215614759575f5ffd5b84359350614769602086016143c2565b9250604085013561477981613eba565b915060608501356001600160401b03811115613fe0575f5ffd5b5f5f5f606084860312156147a5575f5ffd5b83356147b081613eba565b92506020840135915060408401356001600160401b038111156147d1575f5ffd5b6147dd86828701613f73565b9150509250925092565b5f5f5f5f5f60a086880312156147fb575f5ffd5b853561480681613eba565b9450602086013561481681613eba565b935060408601356001600160401b03811115614830575f5ffd5b61483c8882890161407e565b93505060608601356001600160401b03811115614857575f5ffd5b6148638882890161407e565b92505060808601356001600160401b03811115614564575f5ffd5b5f5f5f5f60608587031215614891575f5ffd5b843561489c81613eba565b93506020850135925060408501356001600160401b038111156145e8575f5ffd5b5f602082840312156148cd575f5ffd5b813563ffffffff811681146117d9575f5ffd5b5f5f604083850312156148f1575f5ffd5b82356148fc81613eba565b946020939093013593505050565b5f5f5f5f5f60a0868803121561491e575f5ffd5b853561492981613eba565b9450602086013561493981613eba565b9350604086013592506060860135915060808601356001600160401b03811115614564575f5ffd5b600181811c9082168061497557607f821691505b60208210810361499357634e487b7160e01b5f52602260045260245ffd5b50919050565b634e487b7160e01b5f52603260045260245ffd5b5f602082840312156149bd575f5ffd5b81516001600160401b038111156149d2575f5ffd5b8201601f810184136149e2575f5ffd5b80516149f0613f4582613f12565b818152856020838501011115614a04575f5ffd5b8160208401602083015e5f91810160200191909152949350505050565b634e487b7160e01b5f52601160045260245ffd5b65ffffffffffff8281168282160390811115610bcb57610bcb614a21565b5f60208284031215614a63575f5ffd5b81516117d98161457d565b65ffffffffffff8181168382160190811115610bcb57610bcb614a21565b818382375f9101908152919050565b5f60208284031215614aab575f5ffd5b5051919050565b83815260608101614ac66020830185614366565b826040830152949350505050565b5f60208284031215614ae4575f5ffd5b815180151581146117d9575f5ffd5b84815260ff84166020820152826040820152608060608201525f6115e96080830184613e7a565b85815260ff8516602082015283604082015260a060608201525f614b4160a0830185613e7a565b82810360808401526115328185613e7a565b81810381811115610bcb57610bcb614a21565b634e487b7160e01b5f52601260045260245ffd5b60a081525f614b8c60a08301886141ea565b8281036020840152614b9e818861422d565b90508281036040840152614bb2818761425d565b60608401959095525050608001529392505050565b60c081525f614bd960c08301896141ea565b8281036020840152614beb818961422d565b90508281036040840152614bff818861425d565b60608401969096525050608081019290925260a0909101529392505050565b80820180821115610bcb57610bcb614a21565b8082028115828204841417610bcb57610bcb614a21565b60ff8181168382160190811115610bcb57610bcb614a21565b6001815b60018411156128a157808504811115614c8057614c80614a21565b6001841615614c8e57908102905b60019390931c928002614c65565b5f82614caa57506001610bcb565b81614cb657505f610bcb565b8160018114614ccc5760028114614cd657614cf2565b6001915050610bcb565b60ff841115614ce757614ce7614a21565b50506001821b610bcb565b5060208310610133831016604e8410600b8410161715614d15575081810a610bcb565b614d215f198484614c61565b805f1904821115614d3457614d34614a21565b029392505050565b5f6117d960ff841683614c9c565b8981526001600160a01b0389166020820152610120604082018190525f90614d749083018a6141ea565b8281036060840152614d86818a61422d565b9050828103608084015280885180835260208301915060208160051b84010160208b015f5b83811015614ddd57601f19868403018552614dc7838351613e7a565b6020958601959093509190910190600101614dab565b505085810360a0870152614df1818b61425d565b93505050508560c08401528460e0840152828103610100840152614e158185613e7a565b9c9b505050505050505050505050565b601f82111561130f57805f5260205f20601f840160051c81016020851015614e4a5750805b601f840160051c820191505b81811015611fa0575f8155600101614e56565b81516001600160401b03811115614e8257614e82613ece565b614e9681614e908454614961565b84614e25565b6020601f821160018114614ec8575f8315614eb15750848201515b5f19600385901b1c1916600184901b178455611fa0565b5f84815260208120601f198516915b82811015614ef75787850151825560209485019460019092019101614ed7565b5084821015614f1457868401515f19600387901b60f8161c191681555b50505050600190811b0190555056fea2646970667358221220d83aabcd834ad428befb4466b5aeff6fbc64e087c13b45f09f19aa7192f66b1f64736f6c634300081c0033",
  "linkReferences": {},
  "deployedLinkReferences": {}
}